{
  "contractName": "BasicControl",
  "abi": [
    {
      "anonymous": false,
      "inputs": [],
      "name": "Pause",
      "type": "event"
    },
    {
      "anonymous": false,
      "inputs": [],
      "name": "Unpause",
      "type": "event"
    },
    {
      "constant": true,
      "inputs": [],
      "name": "ceoAddress",
      "outputs": [
        {
          "internalType": "address",
          "name": "",
          "type": "address"
        }
      ],
      "payable": false,
      "stateMutability": "view",
      "type": "function"
    },
    {
      "constant": true,
      "inputs": [],
      "name": "paused",
      "outputs": [
        {
          "internalType": "bool",
          "name": "",
          "type": "bool"
        }
      ],
      "payable": false,
      "stateMutability": "view",
      "type": "function"
    },
    {
      "constant": false,
      "inputs": [
        {
          "internalType": "address",
          "name": "_ceo",
          "type": "address"
        }
      ],
      "name": "setCEO",
      "outputs": [],
      "payable": false,
      "stateMutability": "nonpayable",
      "type": "function"
    },
    {
      "constant": false,
      "inputs": [],
      "name": "pause",
      "outputs": [],
      "payable": false,
      "stateMutability": "nonpayable",
      "type": "function"
    },
    {
      "constant": false,
      "inputs": [],
      "name": "unpause",
      "outputs": [],
      "payable": false,
      "stateMutability": "nonpayable",
      "type": "function"
    }
  ],
  "bytecode": "0x608060405260008060146101000a81548160ff02191690831515021790555034801561002a57600080fd5b5061039f8061003a6000396000f3fe608060405234801561001057600080fd5b50600436106100575760003560e01c80630a0f81681461005c57806327d7874c146100a65780633f4ba83a146100ea5780635c975abb146100f45780638456cb5914610116575b600080fd5b610064610120565b604051808273ffffffffffffffffffffffffffffffffffffffff1673ffffffffffffffffffffffffffffffffffffffff16815260200191505060405180910390f35b6100e8600480360360208110156100bc57600080fd5b81019080803573ffffffffffffffffffffffffffffffffffffffff169060200190929190505050610145565b005b6100f26101e1565b005b6100fc61029b565b604051808215151515815260200191505060405180910390f35b61011e6102ae565b005b6000809054906101000a900473ffffffffffffffffffffffffffffffffffffffff1681565b6000809054906101000a900473ffffffffffffffffffffffffffffffffffffffff1673ffffffffffffffffffffffffffffffffffffffff163373ffffffffffffffffffffffffffffffffffffffff161461019e57600080fd5b806000806101000a81548173ffffffffffffffffffffffffffffffffffffffff021916908373ffffffffffffffffffffffffffffffffffffffff16021790555050565b6000809054906101000a900473ffffffffffffffffffffffffffffffffffffffff1673ffffffffffffffffffffffffffffffffffffffff163373ffffffffffffffffffffffffffffffffffffffff161461023a57600080fd5b600060149054906101000a900460ff1661025357600080fd5b60008060146101000a81548160ff0219169083151502179055507f7805862f689e2f13df9f062ff482ad3ad112aca9e0847911ed832e158c525b3360405160405180910390a1565b600060149054906101000a900460ff1681565b6000809054906101000a900473ffffffffffffffffffffffffffffffffffffffff1673ffffffffffffffffffffffffffffffffffffffff163373ffffffffffffffffffffffffffffffffffffffff161461030757600080fd5b600060149054906101000a900460ff161561032157600080fd5b6001600060146101000a81548160ff0219169083151502179055507f6985a02210a168e66602d3235cb6db0e70f92b3ba4d376a33c0f3d9434bff62560405160405180910390a156fea265627a7a7231582016049783ddc9a0a618f88ee4904dc17350954db5e76f8b16b225fd2011a953d064736f6c63430005100032",
  "source": "// SPDX-License-Identifier: MIT\npragma solidity >=0.4.22 <0.8.0;\n\ncontract BasicControl {\n    \n    //1. Role Access Controll\n    address public ceoAddress;\n\n    modifier onlyCLevel() {\n        require(msg.sender == ceoAddress);\n        _;\n    }\n\n    function setCEO(address _ceo) external onlyCLevel {\n        ceoAddress = _ceo;\n    } \n\n    //2. Lifecycle Controll\n    bool public paused = false;\n\n    event Pause();\n    event Unpause();\n\n    modifier whenNotPaused() {\n        require(!paused);\n        _;\n    }\n\n    modifier whenPaused() {\n        require(paused);\n        _;\n    }\n\n    function pause() external onlyCLevel whenNotPaused{\n        paused = true;\n        emit Pause();\n    }\n\n    function unpause() external onlyCLevel whenPaused{\n        paused = false;\n        emit Unpause();\n    }\n}\n",
  "sourcePath": "D:/github/mason/simpleCryptoPet/contracts/BasicControll.sol",
  "compiler": {
    "name": "solc",
    "version": "0.5.16+commit.9c3226ce.Emscripten.clang"
  },
  "schemaVersion": "3.2.5",
  "updatedAt": "2020-09-28T15:05:59.844Z",
  "devdoc": {
    "methods": {}
  },
  "userdoc": {
    "methods": {}
  }
}