{
  "contractName": "ClockAuctionBase",
  "abi": [
    {
      "constant": true,
      "inputs": [],
      "name": "nft",
      "outputs": [
        {
          "name": "",
          "type": "address"
        }
      ],
      "payable": false,
      "stateMutability": "view",
      "type": "function"
    },
    {
      "constant": true,
      "inputs": [],
      "name": "ownerCut",
      "outputs": [
        {
          "name": "",
          "type": "uint256"
        }
      ],
      "payable": false,
      "stateMutability": "view",
      "type": "function"
    },
    {
      "constant": true,
      "inputs": [
        {
          "name": "",
          "type": "uint256"
        }
      ],
      "name": "tokenIdToAuction",
      "outputs": [
        {
          "name": "seller",
          "type": "address"
        },
        {
          "name": "startingPrice",
          "type": "uint128"
        },
        {
          "name": "endingPrice",
          "type": "uint128"
        },
        {
          "name": "duration",
          "type": "uint64"
        },
        {
          "name": "startedAt",
          "type": "uint64"
        }
      ],
      "payable": false,
      "stateMutability": "view",
      "type": "function"
    },
    {
      "anonymous": false,
      "inputs": [
        {
          "indexed": false,
          "name": "tokenId",
          "type": "uint256"
        },
        {
          "indexed": false,
          "name": "startingPrice",
          "type": "uint256"
        },
        {
          "indexed": false,
          "name": "endingPrice",
          "type": "uint256"
        },
        {
          "indexed": false,
          "name": "duration",
          "type": "uint256"
        }
      ],
      "name": "AuctionCreated",
      "type": "event"
    },
    {
      "anonymous": false,
      "inputs": [
        {
          "indexed": false,
          "name": "tokenId",
          "type": "uint256"
        },
        {
          "indexed": false,
          "name": "totalPrice",
          "type": "uint256"
        },
        {
          "indexed": false,
          "name": "winner",
          "type": "address"
        }
      ],
      "name": "AuctionSuccessful",
      "type": "event"
    },
    {
      "anonymous": false,
      "inputs": [
        {
          "indexed": false,
          "name": "tokenId",
          "type": "uint256"
        }
      ],
      "name": "AuctionCancelled",
      "type": "event"
    }
  ],
  "bytecode": "0x608060405234801561001057600080fd5b506102e4806100206000396000f300608060405260043610610057576000357c0100000000000000000000000000000000000000000000000000000000900463ffffffff16806347ccca021461005c57806383b5ff8b146100b3578063e3b14757146100de575b600080fd5b34801561006857600080fd5b506100716101d7565b604051808273ffffffffffffffffffffffffffffffffffffffff1673ffffffffffffffffffffffffffffffffffffffff16815260200191505060405180910390f35b3480156100bf57600080fd5b506100c86101fc565b6040518082815260200191505060405180910390f35b3480156100ea57600080fd5b5061010960048036038101908080359060200190929190505050610202565b604051808673ffffffffffffffffffffffffffffffffffffffff1673ffffffffffffffffffffffffffffffffffffffff168152602001856fffffffffffffffffffffffffffffffff166fffffffffffffffffffffffffffffffff168152602001846fffffffffffffffffffffffffffffffff166fffffffffffffffffffffffffffffffff1681526020018367ffffffffffffffff1667ffffffffffffffff1681526020018267ffffffffffffffff1667ffffffffffffffff1681526020019550505050505060405180910390f35b6000809054906101000a900473ffffffffffffffffffffffffffffffffffffffff1681565b60025481565b60016020528060005260406000206000915090508060000160009054906101000a900473ffffffffffffffffffffffffffffffffffffffff16908060010160009054906101000a90046fffffffffffffffffffffffffffffffff16908060010160109054906101000a90046fffffffffffffffffffffffffffffffff16908060020160009054906101000a900467ffffffffffffffff16908060020160089054906101000a900467ffffffffffffffff169050855600a165627a7a723058209fd9ddb5513f0a460b11f110a938d5d611cc432b5eee82f45c2b28b60da9cc690029",
  "source": "// SPDX-License-Identifier: MIT\npragma solidity >=0.4.22 <0.8.0;\n\nimport \"./ERC721.sol\";\n\ncontract ClockAuctionBase {\n\n\n    struct Auction{\n        address seller;\n\n        uint128 startingPrice;\n\n        uint128 endingPrice;\n\n        uint64 duration;\n\n        uint64 startedAt;\n    }\n\n    ERC721 public nft;\n\n    mapping(uint256=>Auction) public tokenIdToAuction;\n\n    uint256 public ownerCut;\n\n    event AuctionCreated(uint256 tokenId, uint256 startingPrice, uint256 endingPrice, uint256 duration);\n    event AuctionSuccessful(uint256 tokenId, uint256 totalPrice, address winner);\n    event AuctionCancelled(uint256 tokenId);\n\n    function _owns(address _claimant, uint256 _tokenId) internal view returns (bool) {\n        return (nft.ownerOf(_tokenId) == _claimant);\n    }\n\n    //The product is temprorily stored in the contract, and will be released after transaction is decided\n    function _escrow(address _owner, uint256 _tokenId) internal {\n        nft.transferFrom(_owner, address(this), _tokenId);\n    }\n\n    //Move this transaction to the receiver\n    function _transfer(address _receiver, uint256 _tokenId) internal {\n        nft.transfer(_receiver, _tokenId);\n    }\n\n    function _addAuction(uint256 _tokenId, Auction _auction) internal {\n        require(_auction.duration >= 1 minutes);\n\n        tokenIdToAuction[_tokenId] = _auction;\n\n        emit AuctionCreated(_tokenId, _auction.startingPrice, _auction.endingPrice, _auction.duration);\n    }\n\n\n    function _cancelAuction(uint256 _tokenId, address _seller) internal {\n        _removeAuction(_tokenId);\n        _transfer(_seller, _tokenId);\n    }\n\n    function _bid(uint256 _tokenId, uint256 _bidAmount)\n        internal\n        returns (uint256)\n    {\n        Auction storage auction = tokenIdToAuction[_tokenId];\n        require(_isOnAuction(auction));\n        uint256 price = _currentPrice(auction);\n        require(_bidAmount >= price);\n        address seller = auction.seller;\n        \n        uint256 auctioneerCut = _computeCut(price);\n        uint256 sellerProceeds = price - auctioneerCut;\n        seller.transfer(sellerProceeds);\n        uint256 excess = _bidAmount - price;\n        msg.sender.transfer(excess);    \n        emit AuctionSuccessful(_tokenId, price, msg.sender);\n        return price;\n    }\n\n    function _removeAuction(uint256 _tokenId) internal {\n        delete tokenIdToAuction[_tokenId];\n    }\n\n    function _isOnAuction(Auction storage _auction) internal view returns (bool) {\n        return (_auction.startedAt > 0);//Not cancelled, not success\n    }\n\n    function _currentPrice(Auction storage _auction)\n        internal\n        view\n        returns (uint256)\n    {\n        uint256 secondPassed = 0;\n        if(now > _auction.startedAt){\n            secondPassed = now - _auction.startedAt;\n        }\n\n        return _computeCurrentPrice(\n            _auction.startingPrice,\n            _auction.endingPrice,\n            _auction.duration,\n            secondPassed\n        );        \n    }\n\n    function _computeCurrentPrice(\n        uint256 _startingPrice,\n        uint256 _endingPrice,\n        uint256 _duration,\n        uint256 _secondsPassed\n    )\n    internal pure returns (uint256){\n        if(_secondsPassed >= _duration){\n            return _endingPrice;\n        }\n        int256 totalPriceChange = int256(_endingPrice) - int256(_startingPrice);\n        //128 bit multipli 64 bit wont excess 256 bit\n        int256 currentPriceChange = totalPriceChange * int256(_secondsPassed) / int256(_duration);\n        int256 currentPrice = int256(_startingPrice) + currentPriceChange;\n\n        return uint256(currentPrice);\n    }\n\n    function _computeCut(uint256 _price) internal view returns (uint256) {\n        //Before using safemath, firstly consider does it overflow?\n        //_price is actually 128 bit by business. So 2**128 * 10000 does not excess 2**256\n        return _price * ownerCut / 10000;\n    }\n\n}\n",
  "sourcePath": "D:\\github\\mason\\simpleCryptoPet\\contracts\\ClockAuctionBase.sol",
  "compiler": {
    "name": "solc",
    "version": "0.4.25+commit.59dbf8f1.Emscripten.clang"
  },
  "schemaVersion": "3.2.5",
  "updatedAt": "2020-10-06T16:41:16.827Z",
  "devdoc": {
    "methods": {}
  },
  "userdoc": {
    "methods": {}
  }
}