{
  "contractName": "GeneScience",
  "abi": [
    {
      "inputs": [],
      "payable": false,
      "stateMutability": "nonpayable",
      "type": "constructor"
    },
    {
      "anonymous": false,
      "inputs": [
        {
          "indexed": false,
          "name": "randomN",
          "type": "uint256"
        }
      ],
      "name": "Random",
      "type": "event"
    },
    {
      "constant": false,
      "inputs": [
        {
          "name": "_genes1",
          "type": "uint256"
        },
        {
          "name": "_genes2",
          "type": "uint256"
        },
        {
          "name": "_targetBlock",
          "type": "uint256"
        }
      ],
      "name": "mixGenes",
      "outputs": [
        {
          "name": "",
          "type": "uint256"
        }
      ],
      "payable": false,
      "stateMutability": "nonpayable",
      "type": "function"
    },
    {
      "constant": true,
      "inputs": [
        {
          "name": "_genes",
          "type": "uint256"
        }
      ],
      "name": "expressingTraits",
      "outputs": [
        {
          "name": "",
          "type": "uint8[12]"
        }
      ],
      "payable": false,
      "stateMutability": "pure",
      "type": "function"
    },
    {
      "constant": true,
      "inputs": [
        {
          "name": "_traits",
          "type": "uint8[]"
        }
      ],
      "name": "encode",
      "outputs": [
        {
          "name": "_genes",
          "type": "uint256"
        }
      ],
      "payable": false,
      "stateMutability": "pure",
      "type": "function"
    },
    {
      "constant": true,
      "inputs": [
        {
          "name": "_genes",
          "type": "uint256"
        }
      ],
      "name": "decode",
      "outputs": [
        {
          "name": "",
          "type": "uint8[]"
        }
      ],
      "payable": false,
      "stateMutability": "pure",
      "type": "function"
    }
  ],
  "bytecode": "0x608060405234801561001057600080fd5b5061077e806100206000396000f300608060405260043610610062576000357c0100000000000000000000000000000000000000000000000000000000900463ffffffff1680630d9f5aed146100675780631597ee44146100bc57806361a769001461013657806377a74a20146101b8575b600080fd5b34801561007357600080fd5b506100a6600480360381019080803590602001909291908035906020019092919080359060200190929190505050610221565b6040518082815260200191505060405180910390f35b3480156100c857600080fd5b5061012060048036038101908080359060200190820180359060200190808060200260200160405190810160405280939291908181526020018383602002808284378201915050505050509192919290505050610586565b6040518082815260200191505060405180910390f35b34801561014257600080fd5b5061016160048036038101908080359060200190929190505050610598565b6040518080602001828103825283818151815260200191508051906020019060200280838360005b838110156101a4578082015181840152602081019050610189565b505050509050019250505060405180910390f35b3480156101c457600080fd5b506101e3600480360381019080803590602001909291905050506105aa565b6040518082600c60200280838360005b8381101561020e5780820151818401526020810190506101f3565b5050505090500191505060405180910390f35b60008060608060606000806000806000808b4060019004995060008a14156102855760ff8c167fffffffffffffffffffffffffffffffffffffffffffffffffffffffffffffff004316019b50438c111561027c5760ff8c039b505b8b406001900499505b898e8e8e6040518085815260200184815260200183815260200182815260200194505050505060405180910390206001900499507fbcf69e7223438137d9099bb71b1772c3eb2a5a8840750b247913cd6fd4d249d58a6040518082815260200191505060405180910390a16102f98e61060e565b98506103048d61060e565b975060306040519080825280602002602001820160405280156103365781602001602082028038833980820191505090505b50965060009550600092505b600c8310156104bb57600391505b6001821015156104ae57816004840201905061036e8a6002886106a7565b9350600286019550600084141561040157886001820381518110151561039057fe5b90602001906020020151945088818151811015156103aa57fe5b9060200190602002015189600183038151811015156103c557fe5b9060200190602002019060ff16908160ff16815250508489828151811015156103ea57fe5b9060200190602002019060ff16908160ff16815250505b61040d8a6002886106a7565b935060028601955060008414156104a057876001820381518110151561042f57fe5b906020019060200201519450878181518110151561044957fe5b90602001906020020151886001830381518110151561046457fe5b9060200190602002019060ff16908160ff168152505084888281518110151561048957fe5b9060200190602002019060ff16908160ff16815250505b818060019003925050610350565b8280600101935050610342565b600092505b6030831015610571576104d58a6001886106a7565b935060018601955060008414156105275788838151811015156104f457fe5b90602001906020020151878481518110151561050c57fe5b9060200190602002019060ff16908160ff1681525050610564565b878381518110151561053557fe5b90602001906020020151878481518110151561054d57fe5b9060200190602002019060ff16908160ff16815250505b82806001019350506104c0565b60019a50505050505050505050509392505050565b6000610591826106da565b9050919050565b60606105a38261060e565b9050919050565b6105b261072e565b6105ba61072e565b60008090505b600c811015610604576105d8846005601484026106a7565b8282600c811015156105e657fe5b602002019060ff16908160ff168152505080806001019150506105c0565b8192505050919050565b60608060008060306040519080825280602002602001820160405280156106445781602001602082028038833980820191505090505b50925060009150600090505b603081101561069c57610665856005846106a7565b838281518110151561067357fe5b9060200190602002019060ff16908160ff16815250506005820191508080600101915050610650565b829350505050919050565b60008060018460019060020a0203905082819060020a029050808516945082859060020a90049450849150509392505050565b60008060009150600090505b6030811015610728576005829060020a0291508281602f0381518110151561070a57fe5b9060200190602002015160ff168217915080806001019150506106e6565b50919050565b61018060405190810160405280600c906020820280388339808201915050905050905600a165627a7a7230582056f9a518b6a4f9bea10f1bf55aef940584ddb35278b34806fb7e08892c050cdf0029",
  "source": "// SPDX-License-Identifier: MIT\npragma solidity >=0.4.22 <0.8.0;\n\nimport \"./GeneScienceInterface.sol\";\n\ncontract GeneScience is GeneScienceInterface{\n\n    constructor() public{}\n    uint256 private constant maskLast8Bit = uint256(0xff);\n    uint256 private constant maskFirst248Bit = uint256(~0xff);\n    event Random(uint256 randomN);\n    /***Externals***/\n    function mixGenes(uint256 _genes1, uint256 _genes2, uint256 _targetBlock) public returns(uint256){\n        \n        uint256 randomN = uint256(blockhash(_targetBlock));\n        //0 means the current block. So we found some previous block. \n        if(randomN == 0) {\n            _targetBlock = (block.number & maskFirst248Bit) + (_targetBlock & maskLast8Bit);\n            if(_targetBlock > block.number){\n                _targetBlock -= 0xff;\n            }\n            randomN = uint256(blockhash(_targetBlock)); \n        }\n        \n        //As much entrophy as we can\n        randomN = uint256(keccak256(randomN, _genes1, _genes2, _targetBlock));\n        emit Random(randomN);\n        uint8[] memory traits1 = _toTraits(_genes1);\n        uint8[] memory traits2 = _toTraits(_genes2);\n        uint8[] memory baby = new uint8[](48);\n        uint rIndex = 0;\n        uint8 swap;\n        //Horitzon swap\n        uint rand;\n        for(uint i = 0;i<12;i++){\n            for(uint j=3;j>=1;j--){\n                uint traitId = (i * 4) + j;\n                rand = _sliceInteger(randomN, 2, rIndex);\n                rIndex += 2;\n                if(rand == 0){\n                    swap = traits1[traitId - 1];\n                    traits1[traitId - 1] = traits1[traitId];\n                    traits1[traitId] = swap;                   \n                }\n                rand = _sliceInteger(randomN, 2, rIndex);\n                rIndex += 2;\n                if(rand == 0){\n                    swap = traits2[traitId - 1];\n                    traits2[traitId - 1] = traits2[traitId];\n                    traits2[traitId] = swap;                   \n                }\n            }\n        }\n        //Vertical chosen\n        for(i=0;i<48;i++){\n            rand = _sliceInteger(randomN, 1, rIndex);\n            rIndex += 1;   \n\n            if(rand == 0){\n                baby[i] =  traits1[i];\n            }\n            else{\n                baby[i] =  traits2[i];\n            }\n        }\n        return 1;\n        //return _fromTraits(baby);\n        \n    }\n\n    function expressingTraits(uint256 _genes) public pure returns(uint8[12] memory) {\n        uint8[12] memory result;\n        for(uint i=0;i<12;i++){\n            result[i] = uint8(_sliceInteger(_genes, 5, i*20));\n        }\n        return result;\n    }\n\n    function encode(uint8[] memory _traits) public pure returns (uint256 _genes) {\n        return _fromTraits(_traits);\n    }\n\n    function decode(uint256 _genes) public pure returns(uint8[] memory) {\n        return _toTraits(_genes);\n    }\n    \n    /***Internals***/\n    function _toTraits(uint256 _genes) internal pure returns (uint8[] memory) {\n        uint8[] memory result = new uint8[](48);\n        uint offset = 0;\n        for(uint i=0;i<48;i++){\n            result[i] = uint8(_sliceInteger(_genes, 5, offset));\n            offset+=5;\n        }\n        return result;\n    }\n\n    function _fromTraits(uint8[] memory _traits) internal pure returns (uint256 _genes) {\n        _genes = 0;\n        for(uint i=0;i<48;i++){\n            _genes <<= 5;\n            _genes |= _traits[47 - i];\n        }\n    }\n\n    function _sliceInteger(uint256 _val, uint256 _nbits, uint256 _offset) internal pure returns(uint256){\n        uint256 mask = (1 << _nbits) - 1;\n        mask <<= _offset;  \n        _val &= mask;\n        _val >>= _offset;\n        return _val;\n    }\n}\n",
  "sourcePath": "D:\\github\\mason\\simpleCryptoPet\\contracts\\GeneScience.sol",
  "compiler": {
    "name": "solc",
    "version": "0.4.25+commit.59dbf8f1.Emscripten.clang"
  },
  "schemaVersion": "3.2.5",
  "updatedAt": "2020-10-06T16:41:16.848Z",
  "devdoc": {
    "methods": {}
  },
  "userdoc": {
    "methods": {
      "mixGenes(uint256,uint256,uint256)": {
        "notice": "*Externals**"
      }
    }
  }
}