{
  "contractName": "KittyBreeding",
  "abi": [
    {
      "constant": true,
      "inputs": [
        {
          "name": "_interfaceID",
          "type": "bytes4"
        }
      ],
      "name": "supportsInterface",
      "outputs": [
        {
          "name": "",
          "type": "bool"
        }
      ],
      "payable": false,
      "stateMutability": "view",
      "type": "function"
    },
    {
      "constant": true,
      "inputs": [],
      "name": "name",
      "outputs": [
        {
          "name": "",
          "type": "string"
        }
      ],
      "payable": false,
      "stateMutability": "view",
      "type": "function"
    },
    {
      "constant": false,
      "inputs": [
        {
          "name": "_to",
          "type": "address"
        },
        {
          "name": "_tokenId",
          "type": "uint256"
        }
      ],
      "name": "approve",
      "outputs": [],
      "payable": false,
      "stateMutability": "nonpayable",
      "type": "function"
    },
    {
      "constant": true,
      "inputs": [],
      "name": "ceoAddress",
      "outputs": [
        {
          "name": "",
          "type": "address"
        }
      ],
      "payable": false,
      "stateMutability": "view",
      "type": "function"
    },
    {
      "constant": true,
      "inputs": [],
      "name": "totalSupply",
      "outputs": [
        {
          "name": "total",
          "type": "uint256"
        }
      ],
      "payable": false,
      "stateMutability": "view",
      "type": "function"
    },
    {
      "constant": false,
      "inputs": [
        {
          "name": "_from",
          "type": "address"
        },
        {
          "name": "_to",
          "type": "address"
        },
        {
          "name": "_tokenId",
          "type": "uint256"
        }
      ],
      "name": "transferFrom",
      "outputs": [],
      "payable": false,
      "stateMutability": "nonpayable",
      "type": "function"
    },
    {
      "constant": false,
      "inputs": [
        {
          "name": "_ceo",
          "type": "address"
        }
      ],
      "name": "setCEO",
      "outputs": [],
      "payable": false,
      "stateMutability": "nonpayable",
      "type": "function"
    },
    {
      "constant": false,
      "inputs": [],
      "name": "unpause",
      "outputs": [],
      "payable": false,
      "stateMutability": "nonpayable",
      "type": "function"
    },
    {
      "constant": true,
      "inputs": [
        {
          "name": "",
          "type": "uint256"
        }
      ],
      "name": "sireAllowedToAddress",
      "outputs": [
        {
          "name": "",
          "type": "address"
        }
      ],
      "payable": false,
      "stateMutability": "view",
      "type": "function"
    },
    {
      "constant": true,
      "inputs": [
        {
          "name": "",
          "type": "uint256"
        }
      ],
      "name": "kittyIndexToApproved",
      "outputs": [
        {
          "name": "",
          "type": "address"
        }
      ],
      "payable": false,
      "stateMutability": "view",
      "type": "function"
    },
    {
      "constant": false,
      "inputs": [
        {
          "name": "sec",
          "type": "uint256"
        }
      ],
      "name": "setSecondsPerBlock",
      "outputs": [],
      "payable": false,
      "stateMutability": "nonpayable",
      "type": "function"
    },
    {
      "constant": true,
      "inputs": [],
      "name": "paused",
      "outputs": [
        {
          "name": "",
          "type": "bool"
        }
      ],
      "payable": false,
      "stateMutability": "view",
      "type": "function"
    },
    {
      "constant": true,
      "inputs": [
        {
          "name": "_tokenId",
          "type": "uint256"
        }
      ],
      "name": "ownerOf",
      "outputs": [
        {
          "name": "owner",
          "type": "address"
        }
      ],
      "payable": false,
      "stateMutability": "view",
      "type": "function"
    },
    {
      "constant": true,
      "inputs": [
        {
          "name": "_owner",
          "type": "address"
        }
      ],
      "name": "balanceOf",
      "outputs": [
        {
          "name": "balance",
          "type": "uint256"
        }
      ],
      "payable": false,
      "stateMutability": "view",
      "type": "function"
    },
    {
      "constant": true,
      "inputs": [],
      "name": "secondsPerBlock",
      "outputs": [
        {
          "name": "",
          "type": "uint256"
        }
      ],
      "payable": false,
      "stateMutability": "view",
      "type": "function"
    },
    {
      "constant": false,
      "inputs": [],
      "name": "pause",
      "outputs": [],
      "payable": false,
      "stateMutability": "nonpayable",
      "type": "function"
    },
    {
      "constant": true,
      "inputs": [
        {
          "name": "",
          "type": "uint256"
        }
      ],
      "name": "kitties",
      "outputs": [
        {
          "name": "genes",
          "type": "uint256"
        },
        {
          "name": "birthTime",
          "type": "uint64"
        },
        {
          "name": "matronId",
          "type": "uint32"
        },
        {
          "name": "sireId",
          "type": "uint32"
        },
        {
          "name": "sireWithId",
          "type": "uint32"
        },
        {
          "name": "generation",
          "type": "uint16"
        },
        {
          "name": "cooldownIndex",
          "type": "uint16"
        },
        {
          "name": "cooldownEndBlock",
          "type": "uint64"
        }
      ],
      "payable": false,
      "stateMutability": "view",
      "type": "function"
    },
    {
      "constant": true,
      "inputs": [],
      "name": "symbol",
      "outputs": [
        {
          "name": "",
          "type": "string"
        }
      ],
      "payable": false,
      "stateMutability": "view",
      "type": "function"
    },
    {
      "constant": true,
      "inputs": [
        {
          "name": "",
          "type": "uint256"
        }
      ],
      "name": "cooldowns",
      "outputs": [
        {
          "name": "",
          "type": "uint32"
        }
      ],
      "payable": false,
      "stateMutability": "view",
      "type": "function"
    },
    {
      "constant": true,
      "inputs": [
        {
          "name": "",
          "type": "uint256"
        }
      ],
      "name": "kittyIndexToOwner",
      "outputs": [
        {
          "name": "",
          "type": "address"
        }
      ],
      "payable": false,
      "stateMutability": "view",
      "type": "function"
    },
    {
      "constant": false,
      "inputs": [
        {
          "name": "_to",
          "type": "address"
        },
        {
          "name": "_tokenId",
          "type": "uint256"
        }
      ],
      "name": "transfer",
      "outputs": [],
      "payable": false,
      "stateMutability": "nonpayable",
      "type": "function"
    },
    {
      "constant": true,
      "inputs": [],
      "name": "autoBirthFee",
      "outputs": [
        {
          "name": "",
          "type": "uint256"
        }
      ],
      "payable": false,
      "stateMutability": "view",
      "type": "function"
    },
    {
      "constant": true,
      "inputs": [
        {
          "name": "",
          "type": "address"
        }
      ],
      "name": "ownershipTokenCount",
      "outputs": [
        {
          "name": "",
          "type": "uint256"
        }
      ],
      "payable": false,
      "stateMutability": "view",
      "type": "function"
    },
    {
      "anonymous": false,
      "inputs": [
        {
          "indexed": false,
          "name": "owner",
          "type": "address"
        },
        {
          "indexed": false,
          "name": "matronId",
          "type": "uint256"
        },
        {
          "indexed": false,
          "name": "sireId",
          "type": "uint256"
        },
        {
          "indexed": false,
          "name": "cooldownEndBlock",
          "type": "uint256"
        }
      ],
      "name": "Pregnant",
      "type": "event"
    },
    {
      "anonymous": false,
      "inputs": [
        {
          "indexed": false,
          "name": "from",
          "type": "address"
        },
        {
          "indexed": false,
          "name": "to",
          "type": "address"
        },
        {
          "indexed": false,
          "name": "tokenId",
          "type": "uint256"
        }
      ],
      "name": "Transfer",
      "type": "event"
    },
    {
      "anonymous": false,
      "inputs": [
        {
          "indexed": false,
          "name": "owner",
          "type": "address"
        },
        {
          "indexed": false,
          "name": "approved",
          "type": "address"
        },
        {
          "indexed": false,
          "name": "tokenId",
          "type": "uint256"
        }
      ],
      "name": "Approval",
      "type": "event"
    },
    {
      "anonymous": false,
      "inputs": [
        {
          "indexed": false,
          "name": "owner",
          "type": "address"
        },
        {
          "indexed": false,
          "name": "kittyId",
          "type": "uint256"
        },
        {
          "indexed": false,
          "name": "matronId",
          "type": "uint256"
        },
        {
          "indexed": false,
          "name": "sireId",
          "type": "uint256"
        },
        {
          "indexed": false,
          "name": "genes",
          "type": "uint256"
        }
      ],
      "name": "Birth",
      "type": "event"
    },
    {
      "anonymous": false,
      "inputs": [],
      "name": "Pause",
      "type": "event"
    },
    {
      "anonymous": false,
      "inputs": [],
      "name": "Unpause",
      "type": "event"
    },
    {
      "constant": false,
      "inputs": [
        {
          "name": "geneScienceContract",
          "type": "address"
        }
      ],
      "name": "setGeneScienceInterface",
      "outputs": [],
      "payable": false,
      "stateMutability": "nonpayable",
      "type": "function"
    },
    {
      "constant": false,
      "inputs": [
        {
          "name": "val",
          "type": "uint256"
        }
      ],
      "name": "setAutoBirthFee",
      "outputs": [],
      "payable": false,
      "stateMutability": "nonpayable",
      "type": "function"
    },
    {
      "constant": false,
      "inputs": [
        {
          "name": "_addr",
          "type": "address"
        },
        {
          "name": "_sireId",
          "type": "uint256"
        }
      ],
      "name": "approveSiring",
      "outputs": [],
      "payable": false,
      "stateMutability": "nonpayable",
      "type": "function"
    },
    {
      "constant": false,
      "inputs": [
        {
          "name": "_matronId",
          "type": "uint256"
        },
        {
          "name": "_sireId",
          "type": "uint256"
        }
      ],
      "name": "breedWithAuto",
      "outputs": [],
      "payable": true,
      "stateMutability": "payable",
      "type": "function"
    },
    {
      "constant": false,
      "inputs": [
        {
          "name": "_matronId",
          "type": "uint256"
        }
      ],
      "name": "giveBirth",
      "outputs": [
        {
          "name": "",
          "type": "uint256"
        }
      ],
      "payable": false,
      "stateMutability": "nonpayable",
      "type": "function"
    }
  ],
  "bytecode": "0x608060405260008060146101000a81548160ff0219169083151502179055506101c060405190810160405280603c63ffffffff1663ffffffff168152602001607863ffffffff1663ffffffff16815260200161012c63ffffffff1663ffffffff16815260200161025863ffffffff1663ffffffff16815260200161070863ffffffff1663ffffffff168152602001610e1063ffffffff1663ffffffff168152602001611c2063ffffffff1663ffffffff16815260200161384063ffffffff1663ffffffff16815260200161708063ffffffff1663ffffffff16815260200161e10063ffffffff1663ffffffff1681526020016201518063ffffffff1663ffffffff1681526020016202a30063ffffffff1663ffffffff1681526020016205460063ffffffff1663ffffffff16815260200162093a8063ffffffff1663ffffffff16815250600190600e620001559291906200017a565b50600f60035566071afd498d00006009553480156200017357600080fd5b506200025a565b82600e600701600890048101928215620002115791602002820160005b83821115620001dd57835183826101000a81548163ffffffff021916908363ffffffff160217905550926020019260040160208160030104928301926001030262000197565b80156200020f5782816101000a81549063ffffffff0219169055600401602081600301049283019260010302620001dd565b505b50905062000220919062000224565b5090565b6200025791905b808211156200025357600081816101000a81549063ffffffff0219169055506001016200022b565b5090565b90565b6126d8806200026a6000396000f30060806040526004361061016a576000357c0100000000000000000000000000000000000000000000000000000000900463ffffffff16806301ffc9a71461016f57806306fdde03146101d3578063095ea7b3146102635780630a0f8168146102b057806318160ddd1461030757806323b872dd1461033257806327d7874c1461039f5780633f4ba83a146103e257806346116e6f146103f9578063481af3d3146104665780634b85fd55146104d35780634dfff04f146105005780635663896e1461054d5780635c975abb1461057a5780636352211e146105a957806370a08231146106165780637a7d49371461066d5780637ebe6ed4146106985780638456cb59146106db57806388c2a0bf146106f25780638cc51eda1461073357806395d89b41146108015780639d6fac6f14610891578063a45f4bfc146108de578063a9059cbb1461094b578063b0c35c0514610998578063cec21acb146109c3578063f7d8c88314610a1a575b600080fd5b34801561017b57600080fd5b506101b960048036038101908080357bffffffffffffffffffffffffffffffffffffffffffffffffffffffff19169060200190929190505050610a44565b604051808215151515815260200191505060405180910390f35b3480156101df57600080fd5b506101e8610ce7565b6040518080602001828103825283818151815260200191508051906020019080838360005b8381101561022857808201518184015260208101905061020d565b50505050905090810190601f1680156102555780820380516001836020036101000a031916815260200191505b509250505060405180910390f35b34801561026f57600080fd5b506102ae600480360381019080803573ffffffffffffffffffffffffffffffffffffffff16906020019092919080359060200190929190505050610d20565b005b3480156102bc57600080fd5b506102c5610ebd565b604051808273ffffffffffffffffffffffffffffffffffffffff1673ffffffffffffffffffffffffffffffffffffffff16815260200191505060405180910390f35b34801561031357600080fd5b5061031c610ee2565b6040518082815260200191505060405180910390f35b34801561033e57600080fd5b5061039d600480360381019080803573ffffffffffffffffffffffffffffffffffffffff169060200190929190803573ffffffffffffffffffffffffffffffffffffffff16906020019092919080359060200190929190505050610eef565b005b3480156103ab57600080fd5b506103e0600480360381019080803573ffffffffffffffffffffffffffffffffffffffff16906020019092919050505061105b565b005b3480156103ee57600080fd5b506103f76110f9565b005b34801561040557600080fd5b50610424600480360381019080803590602001909291905050506111b7565b604051808273ffffffffffffffffffffffffffffffffffffffff1673ffffffffffffffffffffffffffffffffffffffff16815260200191505060405180910390f35b34801561047257600080fd5b50610491600480360381019080803590602001909291905050506111ea565b604051808273ffffffffffffffffffffffffffffffffffffffff1673ffffffffffffffffffffffffffffffffffffffff16815260200191505060405180910390f35b3480156104df57600080fd5b506104fe6004803603810190808035906020019092919050505061121d565b005b34801561050c57600080fd5b5061054b600480360381019080803573ffffffffffffffffffffffffffffffffffffffff16906020019092919080359060200190929190505050611282565b005b34801561055957600080fd5b5061057860048036038101908080359060200190929190505050611309565b005b34801561058657600080fd5b5061058f61136e565b604051808215151515815260200191505060405180910390f35b3480156105b557600080fd5b506105d460048036038101908080359060200190929190505050611381565b604051808273ffffffffffffffffffffffffffffffffffffffff1673ffffffffffffffffffffffffffffffffffffffff16815260200191505060405180910390f35b34801561062257600080fd5b50610657600480360381019080803573ffffffffffffffffffffffffffffffffffffffff1690602001909291905050506113fa565b6040518082815260200191505060405180910390f35b34801561067957600080fd5b50610682611443565b6040518082815260200191505060405180910390f35b3480156106a457600080fd5b506106d9600480360381019080803573ffffffffffffffffffffffffffffffffffffffff169060200190929190505050611449565b005b3480156106e757600080fd5b506106f06114e8565b005b3480156106fe57600080fd5b5061071d600480360381019080803590602001909291905050506115a8565b6040518082815260200191505060405180910390f35b34801561073f57600080fd5b5061075e6004803603810190808035906020019092919050505061185f565b604051808981526020018867ffffffffffffffff1667ffffffffffffffff1681526020018763ffffffff1663ffffffff1681526020018663ffffffff1663ffffffff1681526020018563ffffffff1663ffffffff1681526020018461ffff1661ffff1681526020018361ffff1661ffff1681526020018267ffffffffffffffff1667ffffffffffffffff1681526020019850505050505050505060405180910390f35b34801561080d57600080fd5b5061081661192a565b6040518080602001828103825283818151815260200191508051906020019080838360005b8381101561085657808201518184015260208101905061083b565b50505050905090810190601f1680156108835780820380516001836020036101000a031916815260200191505b509250505060405180910390f35b34801561089d57600080fd5b506108bc60048036038101908080359060200190929190505050611963565b604051808263ffffffff1663ffffffff16815260200191505060405180910390f35b3480156108ea57600080fd5b5061090960048036038101908080359060200190929190505050611992565b604051808273ffffffffffffffffffffffffffffffffffffffff1673ffffffffffffffffffffffffffffffffffffffff16815260200191505060405180910390f35b34801561095757600080fd5b50610996600480360381019080803573ffffffffffffffffffffffffffffffffffffffff169060200190929190803590602001909291905050506119c5565b005b3480156109a457600080fd5b506109ad611b1b565b6040518082815260200191505060405180910390f35b3480156109cf57600080fd5b50610a04600480360381019080803573ffffffffffffffffffffffffffffffffffffffff169060200190929190505050611b21565b6040518082815260200191505060405180910390f35b610a426004803603810190808035906020019092919080359060200190929190505050611b39565b005b600060405180807f737570706f727473496e74657266616365286279746573342900000000000000815250601901905060405180910390207bffffffffffffffffffffffffffffffffffffffffffffffffffffffff1916827bffffffffffffffffffffffffffffffffffffffffffffffffffffffff19161480610ce0575060405180807f7472616e7366657246726f6d28616464726573732c616464726573732c75696e81526020017f74323536290000000000000000000000000000000000000000000000000000008152506025019050604051809103902060405180807f7472616e7366657228616464726573732c75696e7432353629000000000000008152506019019050604051809103902060405180807f617070726f766528616464726573732c75696e743235362900000000000000008152506018019050604051809103902060405180807f6f776e65724f662875696e7432353629000000000000000000000000000000008152506010019050604051809103902060405180807f62616c616e63654f6628616464726573732900000000000000000000000000008152506012019050604051809103902060405180807f746f74616c537570706c79282900000000000000000000000000000000000000815250600d019050604051809103902060405180807f73796d626f6c28290000000000000000000000000000000000000000000000008152506008019050604051809103902060405180807f6e616d652829000000000000000000000000000000000000000000000000000081525060060190506040518091039020181818181818187bffffffffffffffffffffffffffffffffffffffffffffffffffffffff1916827bffffffffffffffffffffffffffffffffffffffffffffffffffffffff1916145b9050919050565b6040805190810160405280600d81526020017f43727970746f4b6974746965730000000000000000000000000000000000000081525081565b600060149054906101000a900460ff16151515610d3c57600080fd5b8173ffffffffffffffffffffffffffffffffffffffff16600073ffffffffffffffffffffffffffffffffffffffff1614151515610d7857600080fd5b8173ffffffffffffffffffffffffffffffffffffffff163073ffffffffffffffffffffffffffffffffffffffff1614151515610db357600080fd5b610dbd3382611c24565b1515610dc857600080fd5b816007600083815260200190815260200160002060006101000a81548173ffffffffffffffffffffffffffffffffffffffff021916908373ffffffffffffffffffffffffffffffffffffffff1602179055507f8c5be1e5ebec7d5bd14f71427d1e84f3dd0314c0f7b2291e5b200ac8c7c3b925338383604051808473ffffffffffffffffffffffffffffffffffffffff1673ffffffffffffffffffffffffffffffffffffffff1681526020018373ffffffffffffffffffffffffffffffffffffffff1673ffffffffffffffffffffffffffffffffffffffff168152602001828152602001935050505060405180910390a15050565b6000809054906101000a900473ffffffffffffffffffffffffffffffffffffffff1681565b6000600480549050905090565b600060149054906101000a900460ff16151515610f0b57600080fd5b8173ffffffffffffffffffffffffffffffffffffffff16600073ffffffffffffffffffffffffffffffffffffffff1614151515610f4757600080fd5b8173ffffffffffffffffffffffffffffffffffffffff163073ffffffffffffffffffffffffffffffffffffffff1614151515610f8257600080fd5b610f8c8382611c24565b1515610f9757600080fd5b610fa13382611c90565b1515610fac57600080fd5b610fb7838383611cfc565b7fddf252ad1be2c89b69c2b068fc378daa952ba7f163c4a11628f55a4df523b3ef838383604051808473ffffffffffffffffffffffffffffffffffffffff1673ffffffffffffffffffffffffffffffffffffffff1681526020018373ffffffffffffffffffffffffffffffffffffffff1673ffffffffffffffffffffffffffffffffffffffff168152602001828152602001935050505060405180910390a1505050565b6000809054906101000a900473ffffffffffffffffffffffffffffffffffffffff1673ffffffffffffffffffffffffffffffffffffffff163373ffffffffffffffffffffffffffffffffffffffff161415156110b657600080fd5b806000806101000a81548173ffffffffffffffffffffffffffffffffffffffff021916908373ffffffffffffffffffffffffffffffffffffffff16021790555050565b6000809054906101000a900473ffffffffffffffffffffffffffffffffffffffff1673ffffffffffffffffffffffffffffffffffffffff163373ffffffffffffffffffffffffffffffffffffffff1614151561115457600080fd5b600060149054906101000a900460ff16151561116f57600080fd5b60008060146101000a81548160ff0219169083151502179055507f7805862f689e2f13df9f062ff482ad3ad112aca9e0847911ed832e158c525b3360405160405180910390a1565b60086020528060005260406000206000915054906101000a900473ffffffffffffffffffffffffffffffffffffffff1681565b60076020528060005260406000206000915054906101000a900473ffffffffffffffffffffffffffffffffffffffff1681565b6000809054906101000a900473ffffffffffffffffffffffffffffffffffffffff1673ffffffffffffffffffffffffffffffffffffffff163373ffffffffffffffffffffffffffffffffffffffff1614151561127857600080fd5b8060098190555050565b600060149054906101000a900460ff1615151561129e57600080fd5b6112a83382611c24565b15156112b357600080fd5b816008600083815260200190815260200160002060006101000a81548173ffffffffffffffffffffffffffffffffffffffff021916908373ffffffffffffffffffffffffffffffffffffffff1602179055505050565b6000809054906101000a900473ffffffffffffffffffffffffffffffffffffffff1673ffffffffffffffffffffffffffffffffffffffff163373ffffffffffffffffffffffffffffffffffffffff1614151561136457600080fd5b8060038190555050565b600060149054906101000a900460ff1681565b60006005600083815260200190815260200160002060009054906101000a900473ffffffffffffffffffffffffffffffffffffffff169050600073ffffffffffffffffffffffffffffffffffffffff168173ffffffffffffffffffffffffffffffffffffffff16141515156113f557600080fd5b919050565b6000600660008373ffffffffffffffffffffffffffffffffffffffff1673ffffffffffffffffffffffffffffffffffffffff168152602001908152602001600020549050919050565b60035481565b6000809054906101000a900473ffffffffffffffffffffffffffffffffffffffff1673ffffffffffffffffffffffffffffffffffffffff163373ffffffffffffffffffffffffffffffffffffffff161415156114a457600080fd5b80600a60006101000a81548173ffffffffffffffffffffffffffffffffffffffff021916908373ffffffffffffffffffffffffffffffffffffffff16021790555050565b6000809054906101000a900473ffffffffffffffffffffffffffffffffffffffff1673ffffffffffffffffffffffffffffffffffffffff163373ffffffffffffffffffffffffffffffffffffffff1614151561154357600080fd5b600060149054906101000a900460ff1615151561155f57600080fd5b6001600060146101000a81548160ff0219169083151502179055507f6985a02210a168e66602d3235cb6db0e70f92b3ba4d376a33c0f3d9434bff62560405160405180910390a1565b60008060008060008060008060149054906101000a900460ff161515156115ce57600080fd5b6004888154811015156115dd57fe5b906000526020600020906002020195506115f686611f34565b151561160157600080fd5b8560010160109054906101000a900463ffffffff1663ffffffff16945060048581548110151561162d57fe5b906000526020600020906002020193508360010160149054906101000a900461ffff1661ffff168660010160149054906101000a900461ffff1661ffff1611611688578360010160149054906101000a900461ffff1661169c565b8560010160149054906101000a900461ffff165b61ffff169250600a60009054906101000a900473ffffffffffffffffffffffffffffffffffffffff1673ffffffffffffffffffffffffffffffffffffffff16630d9f5aed8760000154866000015460018a60010160189054906101000a900467ffffffffffffffff16036040518463ffffffff167c0100000000000000000000000000000000000000000000000000000000028152600401808481526020018381526020018267ffffffffffffffff1681526020019350505050602060405180830381600087803b15801561177057600080fd5b505af1158015611784573d6000803e3d6000fd5b505050506040513d602081101561179a57600080fd5b810190808051906020019092919050505091506005600089815260200190815260200160002060009054906101000a900473ffffffffffffffffffffffffffffffffffffffff1690506117f38886600186018585611f5a565b508560010160106101000a81549063ffffffff02191690553373ffffffffffffffffffffffffffffffffffffffff166108fc6009549081150290604051600060405180830381858888f19350505050158015611853573d6000803e3d6000fd5b50505050505050919050565b60048181548110151561186e57fe5b90600052602060002090600202016000915090508060000154908060010160009054906101000a900467ffffffffffffffff16908060010160089054906101000a900463ffffffff169080600101600c9054906101000a900463ffffffff16908060010160109054906101000a900463ffffffff16908060010160149054906101000a900461ffff16908060010160169054906101000a900461ffff16908060010160189054906101000a900467ffffffffffffffff16905088565b6040805190810160405280600281526020017f434b00000000000000000000000000000000000000000000000000000000000081525081565b600181600e8110151561197257fe5b60089182820401919006600402915054906101000a900463ffffffff1681565b60056020528060005260406000206000915054906101000a900473ffffffffffffffffffffffffffffffffffffffff1681565b600060149054906101000a900460ff161515156119e157600080fd5b8173ffffffffffffffffffffffffffffffffffffffff16600073ffffffffffffffffffffffffffffffffffffffff1614151515611a1d57600080fd5b8173ffffffffffffffffffffffffffffffffffffffff163073ffffffffffffffffffffffffffffffffffffffff1614151515611a5857600080fd5b611a623382611c24565b1515611a6d57600080fd5b611a78338383611cfc565b7fddf252ad1be2c89b69c2b068fc378daa952ba7f163c4a11628f55a4df523b3ef338383604051808473ffffffffffffffffffffffffffffffffffffffff1673ffffffffffffffffffffffffffffffffffffffff1681526020018373ffffffffffffffffffffffffffffffffffffffff1673ffffffffffffffffffffffffffffffffffffffff168152602001828152602001935050505060405180910390a15050565b60095481565b60066020528060005260406000206000915090505481565b600080600060149054906101000a900460ff16151515611b5857600080fd5b6009543410151515611b6957600080fd5b600084118015611b795750600083115b1515611b8457600080fd5b611b8e3385611c24565b1515611b9957600080fd5b611ba38385612239565b1515611bae57600080fd5b600484815481101515611bbd57fe5b90600052602060002090600202019150611bd68261234c565b1515611be157600080fd5b600483815481101515611bf057fe5b90600052602060002090600202019050611c098161234c565b1515611c1457600080fd5b611c1e848461239f565b50505050565b60008273ffffffffffffffffffffffffffffffffffffffff166005600084815260200190815260200160002060009054906101000a900473ffffffffffffffffffffffffffffffffffffffff1673ffffffffffffffffffffffffffffffffffffffff1614905092915050565b60008273ffffffffffffffffffffffffffffffffffffffff166007600084815260200190815260200160002060009054906101000a900473ffffffffffffffffffffffffffffffffffffffff1673ffffffffffffffffffffffffffffffffffffffff1614905092915050565b816005600083815260200190815260200160002060006101000a81548173ffffffffffffffffffffffffffffffffffffffff021916908373ffffffffffffffffffffffffffffffffffffffff160217905550600660008373ffffffffffffffffffffffffffffffffffffffff1673ffffffffffffffffffffffffffffffffffffffff16815260200190815260200160002060008154809291906001019190505550600073ffffffffffffffffffffffffffffffffffffffff168373ffffffffffffffffffffffffffffffffffffffff16141515611e9057600660008473ffffffffffffffffffffffffffffffffffffffff1673ffffffffffffffffffffffffffffffffffffffff16815260200190815260200160002060008154809291906001900391905055506007600082815260200190815260200160002060006101000a81549073ffffffffffffffffffffffffffffffffffffffff02191690556008600082815260200190815260200160002060006101000a81549073ffffffffffffffffffffffffffffffffffffffff02191690555b7fddf252ad1be2c89b69c2b068fc378daa952ba7f163c4a11628f55a4df523b3ef838383604051808473ffffffffffffffffffffffffffffffffffffffff1673ffffffffffffffffffffffffffffffffffffffff1681526020018373ffffffffffffffffffffffffffffffffffffffff1673ffffffffffffffffffffffffffffffffffffffff168152602001828152602001935050505060405180910390a1505050565b6000808260010160109054906101000a900463ffffffff1663ffffffff16119050919050565b600080611f65612638565b60008863ffffffff1689141515611f7b57600080fd5b8763ffffffff1688141515611f8f57600080fd5b8661ffff1687141515611fa157600080fd5b600287811515611fad57fe5b049250600d8361ffff161115611fc257600d92505b610100604051908101604052808781526020014267ffffffffffffffff1681526020018a63ffffffff1681526020018963ffffffff168152602001600063ffffffff1681526020018861ffff1681526020018461ffff168152602001600067ffffffffffffffff1681525091506001600483908060018154018082558091505090600182039060005260206000209060020201600090919290919091506000820151816000015560208201518160010160006101000a81548167ffffffffffffffff021916908367ffffffffffffffff16021790555060408201518160010160086101000a81548163ffffffff021916908363ffffffff160217905550606082015181600101600c6101000a81548163ffffffff021916908363ffffffff16021790555060808201518160010160106101000a81548163ffffffff021916908363ffffffff16021790555060a08201518160010160146101000a81548161ffff021916908361ffff16021790555060c08201518160010160166101000a81548161ffff021916908361ffff16021790555060e08201518160010160186101000a81548167ffffffffffffffff021916908367ffffffffffffffff16021790555050500390508063ffffffff168114151561219b57600080fd5b7f0a5311bd2a6608f08a180df2ee7c5946819a649b204b554bb8e39825b2c50ad585828b8b8a604051808673ffffffffffffffffffffffffffffffffffffffff1673ffffffffffffffffffffffffffffffffffffffff1681526020018581526020018481526020018381526020018281526020019550505050505060405180910390a161222a60008683611cfc565b80935050505095945050505050565b60008060006005600085815260200190815260200160002060009054906101000a900473ffffffffffffffffffffffffffffffffffffffff1691506005600086815260200190815260200160002060009054906101000a900473ffffffffffffffffffffffffffffffffffffffff1690508073ffffffffffffffffffffffffffffffffffffffff168273ffffffffffffffffffffffffffffffffffffffff16148061234257508173ffffffffffffffffffffffffffffffffffffffff166008600087815260200190815260200160002060009054906101000a900473ffffffffffffffffffffffffffffffffffffffff1673ffffffffffffffffffffffffffffffffffffffff16145b9250505092915050565b6000808260010160109054906101000a900463ffffffff1663ffffffff161480156123985750438260010160189054906101000a900467ffffffffffffffff1667ffffffffffffffff16105b9050919050565b6000806004848154811015156123b157fe5b906000526020600020906002020191506004838154811015156123d057fe5b90600052602060002090600202019050828260010160106101000a81548163ffffffff021916908363ffffffff16021790555061240c82612557565b61241581612557565b6008600085815260200190815260200160002060006101000a81549073ffffffffffffffffffffffffffffffffffffffff02191690556008600084815260200190815260200160002060006101000a81549073ffffffffffffffffffffffffffffffffffffffff02191690557f241ea03ca20251805084d27d4440371c34a0b85ff108f6bb5611248f73818b806005600086815260200190815260200160002060009054906101000a900473ffffffffffffffffffffffffffffffffffffffff1685858560010160189054906101000a900467ffffffffffffffff16604051808573ffffffffffffffffffffffffffffffffffffffff1673ffffffffffffffffffffffffffffffffffffffff1681526020018481526020018381526020018267ffffffffffffffff16815260200194505050505060405180910390a150505050565b60008060018360010160169054906101000a900461ffff1661ffff16600e8110151561257f57fe5b600891828204019190066004029054906101000a900463ffffffff169150436003548363ffffffff168115156125b157fe5b04019050808360010160186101000a81548167ffffffffffffffff021916908367ffffffffffffffff160217905550600d8360010160169054906101000a900461ffff1661ffff1610156126335760018360010160168282829054906101000a900461ffff160192506101000a81548161ffff021916908361ffff1602179055505b505050565b6101006040519081016040528060008152602001600067ffffffffffffffff168152602001600063ffffffff168152602001600063ffffffff168152602001600063ffffffff168152602001600061ffff168152602001600061ffff168152602001600067ffffffffffffffff16815250905600a165627a7a723058208ab6a58994952eba1484182c843ce5169583f568a1db38d7f095cd7cf631bfcd0029",
  "source": "// SPDX-License-Identifier: MIT\npragma solidity >=0.4.22 <0.8.0;\n\nimport \"./KittyOwnership.sol\";\nimport \"./GeneScienceInterface.sol\";\n\ncontract KittyBreeding is KittyOwnership{\n\n    uint256 public autoBirthFee = 2 finney;\n\n    /***Externals***/\n    event Pregnant(address owner, uint256 matronId, uint256 sireId, uint256 cooldownEndBlock);\n\n    GeneScienceInterface private geneScience;\n\n    function setGeneScienceInterface(address geneScienceContract) external onlyCLevel{\n        geneScience = GeneScienceInterface(geneScienceContract);\n    }\n\n    function setAutoBirthFee(uint256 val) external onlyCLevel{\n        autoBirthFee = val;\n    }\n\n    function approveSiring(address _addr, uint256 _sireId) external whenNotPaused {\n        require(_owns(msg.sender, _sireId));\n        sireAllowedToAddress[_sireId] = _addr;\n    }\n\n    function breedWithAuto(uint256 _matronId, uint256 _sireId) external payable whenNotPaused {\n        require(msg.value >= autoBirthFee);\n        require(_matronId > 0 && _sireId > 0);\n\n        require(_owns(msg.sender, _matronId));\n        require(_isSiringPermitted(_sireId, _matronId));\n        \n        Kitty storage matron = kitties[_matronId];\n        require(_isReadyToBreed(matron));\n        Kitty storage sire = kitties[_sireId];  \n        require(_isReadyToBreed(sire));\n\n        _breedWith(_matronId, _sireId);\n    }\n\n    function giveBirth(uint256 _matronId) external whenNotPaused returns(uint256) {\n        Kitty storage matron = kitties[_matronId];\n        require(_isPregnant(matron));\n        uint256 sireId = matron.sireWithId;\n        Kitty storage sire = kitties[sireId];\n        uint256 parentGeneration = matron.generation > sire.generation ? matron.generation: sire.generation;\n        //Only after cooldown the matron can give birth to the baby\n        uint256 childGenes = geneScience.mixGenes(matron.genes, sire.genes, matron.cooldownEndBlock - 1);\n        address owner = kittyIndexToOwner[_matronId];\n        _createKitty(_matronId, sireId, parentGeneration + 1, childGenes, owner);\n        delete matron.sireWithId ;\n        msg.sender.transfer(autoBirthFee);//Anyone can give birth and earn fee!!\n    }\n\n    /***Internals***/\n    function _breedWith(uint256 _matronId, uint256 _sireId) internal {\n        Kitty storage matron = kitties[_matronId];\n        Kitty storage sire = kitties[_sireId];\n\n        matron.sireWithId = uint32(_sireId);\n        \n        _triggerCooldown(matron);\n        _triggerCooldown(sire);\n\n        //Each pregnant needs allowence.But what if two cats are same owner?\n        delete sireAllowedToAddress[_matronId];\n        delete sireAllowedToAddress[_sireId];\n        \n        emit Pregnant(kittyIndexToOwner[_matronId], _matronId, _sireId, matron.cooldownEndBlock);\n    }\n\n    function _triggerCooldown(Kitty storage kitty) internal {\n        uint32 cooldownTime = cooldowns[kitty.cooldownIndex];\n        uint256 cooldownToBlock = (cooldownTime / secondsPerBlock) + block.number;\n        kitty.cooldownEndBlock = uint64(cooldownToBlock);\n        if (kitty.cooldownIndex < 13) {\n            kitty.cooldownIndex += 1;\n        }\n    }\n\n    function _isSiringPermitted(uint256 _sireId, uint256 _matronId) internal view returns(bool) {\n        address matronOwner = kittyIndexToOwner[_matronId];\n        address sireOwner = kittyIndexToOwner[_sireId];\n\n        return matronOwner == sireOwner || sireAllowedToAddress[_sireId] == matronOwner;\n    }\n\n    function _isReadyToBreed(Kitty storage kitty) internal view returns(bool) {\n        return kitty.sireWithId == 0 && kitty.cooldownEndBlock < block.number;\n    } \n\n    function _isPregnant(Kitty storage kitty) internal view returns(bool) {\n        return kitty.sireWithId > 0;\n    }\n\n    function _isValidMatingPair(\n        Kitty storage _matron,\n        uint256 _matronId,\n        Kitty storage _sire,\n        uint256 _sireId\n    )\n        private\n        view\n        returns(bool)\n    {\n        // A Kitty can't breed with itself!\n        if (_matronId == _sireId) {\n            return false;\n        }\n\n        // Kitties can't breed with their parents.\n        if (_matron.matronId == _sireId || _matron.sireId == _sireId) {\n            return false;\n        }\n        if (_sire.matronId == _matronId || _sire.sireId == _matronId) {\n            return false;\n        }\n\n        // We can short circuit the sibling check (below) if either cat is\n        // gen zero (has a matron ID of zero).\n        if (_sire.matronId == 0 || _matron.matronId == 0) {\n            return true;\n        }\n\n        // Kitties can't breed with full or half siblings.\n        if (_sire.matronId == _matron.matronId || _sire.matronId == _matron.sireId) {\n            return false;\n        }\n        if (_sire.sireId == _matron.matronId || _sire.sireId == _matron.sireId) {\n            return false;\n        }\n\n        // Everything seems cool! Let's get DTF.\n        return true;\n    }\n\n}",
  "sourcePath": "D:/github/mason/simpleCryptoPet/contracts/KittyBreeding.sol",
  "compiler": {
    "name": "solc",
    "version": "0.4.25+commit.59dbf8f1.Emscripten.clang"
  },
  "schemaVersion": "3.2.5",
  "updatedAt": "2020-09-30T12:42:36.886Z",
  "devdoc": {
    "methods": {}
  },
  "userdoc": {
    "methods": {}
  }
}