{
  "contractName": "KittyBase",
  "abi": [
    {
      "constant": true,
      "inputs": [],
      "name": "ceoAddress",
      "outputs": [
        {
          "name": "",
          "type": "address"
        }
      ],
      "payable": false,
      "stateMutability": "view",
      "type": "function"
    },
    {
      "constant": false,
      "inputs": [
        {
          "name": "_ceo",
          "type": "address"
        }
      ],
      "name": "setCEO",
      "outputs": [],
      "payable": false,
      "stateMutability": "nonpayable",
      "type": "function"
    },
    {
      "constant": false,
      "inputs": [],
      "name": "unpause",
      "outputs": [],
      "payable": false,
      "stateMutability": "nonpayable",
      "type": "function"
    },
    {
      "constant": true,
      "inputs": [
        {
          "name": "",
          "type": "uint256"
        }
      ],
      "name": "sireAllowedToAddress",
      "outputs": [
        {
          "name": "",
          "type": "address"
        }
      ],
      "payable": false,
      "stateMutability": "view",
      "type": "function"
    },
    {
      "constant": true,
      "inputs": [
        {
          "name": "",
          "type": "uint256"
        }
      ],
      "name": "kittyIndexToApproved",
      "outputs": [
        {
          "name": "",
          "type": "address"
        }
      ],
      "payable": false,
      "stateMutability": "view",
      "type": "function"
    },
    {
      "constant": true,
      "inputs": [],
      "name": "paused",
      "outputs": [
        {
          "name": "",
          "type": "bool"
        }
      ],
      "payable": false,
      "stateMutability": "view",
      "type": "function"
    },
    {
      "constant": true,
      "inputs": [],
      "name": "secondsPerBlock",
      "outputs": [
        {
          "name": "",
          "type": "uint256"
        }
      ],
      "payable": false,
      "stateMutability": "view",
      "type": "function"
    },
    {
      "constant": false,
      "inputs": [],
      "name": "pause",
      "outputs": [],
      "payable": false,
      "stateMutability": "nonpayable",
      "type": "function"
    },
    {
      "constant": true,
      "inputs": [
        {
          "name": "",
          "type": "uint256"
        }
      ],
      "name": "kitties",
      "outputs": [
        {
          "name": "genes",
          "type": "uint256"
        },
        {
          "name": "birthTime",
          "type": "uint64"
        },
        {
          "name": "matronId",
          "type": "uint32"
        },
        {
          "name": "sireId",
          "type": "uint32"
        },
        {
          "name": "sireWithId",
          "type": "uint32"
        },
        {
          "name": "generation",
          "type": "uint16"
        },
        {
          "name": "cooldownIndex",
          "type": "uint16"
        },
        {
          "name": "cooldownEndBlock",
          "type": "uint64"
        }
      ],
      "payable": false,
      "stateMutability": "view",
      "type": "function"
    },
    {
      "constant": true,
      "inputs": [
        {
          "name": "",
          "type": "uint256"
        }
      ],
      "name": "cooldowns",
      "outputs": [
        {
          "name": "",
          "type": "uint32"
        }
      ],
      "payable": false,
      "stateMutability": "view",
      "type": "function"
    },
    {
      "constant": true,
      "inputs": [
        {
          "name": "",
          "type": "uint256"
        }
      ],
      "name": "kittyIndexToOwner",
      "outputs": [
        {
          "name": "",
          "type": "address"
        }
      ],
      "payable": false,
      "stateMutability": "view",
      "type": "function"
    },
    {
      "constant": true,
      "inputs": [
        {
          "name": "",
          "type": "address"
        }
      ],
      "name": "ownershipTokenCount",
      "outputs": [
        {
          "name": "",
          "type": "uint256"
        }
      ],
      "payable": false,
      "stateMutability": "view",
      "type": "function"
    },
    {
      "anonymous": false,
      "inputs": [
        {
          "indexed": false,
          "name": "owner",
          "type": "address"
        },
        {
          "indexed": false,
          "name": "kittyId",
          "type": "uint256"
        },
        {
          "indexed": false,
          "name": "matronId",
          "type": "uint256"
        },
        {
          "indexed": false,
          "name": "sireId",
          "type": "uint256"
        },
        {
          "indexed": false,
          "name": "genes",
          "type": "uint256"
        }
      ],
      "name": "Birth",
      "type": "event"
    },
    {
      "anonymous": false,
      "inputs": [
        {
          "indexed": false,
          "name": "from",
          "type": "address"
        },
        {
          "indexed": false,
          "name": "to",
          "type": "address"
        },
        {
          "indexed": false,
          "name": "tokenId",
          "type": "uint256"
        }
      ],
      "name": "Transfer",
      "type": "event"
    },
    {
      "anonymous": false,
      "inputs": [],
      "name": "Pause",
      "type": "event"
    },
    {
      "anonymous": false,
      "inputs": [],
      "name": "Unpause",
      "type": "event"
    },
    {
      "constant": false,
      "inputs": [
        {
          "name": "sec",
          "type": "uint256"
        }
      ],
      "name": "setSecondsPerBlock",
      "outputs": [],
      "payable": false,
      "stateMutability": "nonpayable",
      "type": "function"
    }
  ],
  "bytecode": "0x608060405260008060146101000a81548160ff0219169083151502179055506101c060405190810160405280603c63ffffffff1663ffffffff168152602001607863ffffffff1663ffffffff16815260200161012c63ffffffff1663ffffffff16815260200161025863ffffffff1663ffffffff16815260200161070863ffffffff1663ffffffff168152602001610e1063ffffffff1663ffffffff168152602001611c2063ffffffff1663ffffffff16815260200161384063ffffffff1663ffffffff16815260200161708063ffffffff1663ffffffff16815260200161e10063ffffffff1663ffffffff1681526020016201518063ffffffff1663ffffffff1681526020016202a30063ffffffff1663ffffffff1681526020016205460063ffffffff1663ffffffff16815260200162093a8063ffffffff1663ffffffff16815250600190600e61015392919061016b565b50600f60035534801561016557600080fd5b50610241565b82600e6007016008900481019282156101fd5791602002820160005b838211156101cb57835183826101000a81548163ffffffff021916908363ffffffff1602179055509260200192600401602081600301049283019260010302610187565b80156101fb5782816101000a81549063ffffffff02191690556004016020816003010492830192600103026101cb565b505b50905061020a919061020e565b5090565b61023e91905b8082111561023a57600081816101000a81549063ffffffff021916905550600101610214565b5090565b90565b610968806102506000396000f3006080604052600436106100c5576000357c0100000000000000000000000000000000000000000000000000000000900463ffffffff1680630a0f8168146100ca57806327d7874c146101215780633f4ba83a1461016457806346116e6f1461017b578063481af3d3146101e85780635663896e146102555780635c975abb146102825780637a7d4937146102b15780638456cb59146102dc5780638cc51eda146102f35780639d6fac6f146103c1578063a45f4bfc1461040e578063cec21acb1461047b575b600080fd5b3480156100d657600080fd5b506100df6104d2565b604051808273ffffffffffffffffffffffffffffffffffffffff1673ffffffffffffffffffffffffffffffffffffffff16815260200191505060405180910390f35b34801561012d57600080fd5b50610162600480360381019080803573ffffffffffffffffffffffffffffffffffffffff1690602001909291905050506104f7565b005b34801561017057600080fd5b50610179610595565b005b34801561018757600080fd5b506101a660048036038101908080359060200190929190505050610653565b604051808273ffffffffffffffffffffffffffffffffffffffff1673ffffffffffffffffffffffffffffffffffffffff16815260200191505060405180910390f35b3480156101f457600080fd5b5061021360048036038101908080359060200190929190505050610686565b604051808273ffffffffffffffffffffffffffffffffffffffff1673ffffffffffffffffffffffffffffffffffffffff16815260200191505060405180910390f35b34801561026157600080fd5b50610280600480360381019080803590602001909291905050506106b9565b005b34801561028e57600080fd5b5061029761071e565b604051808215151515815260200191505060405180910390f35b3480156102bd57600080fd5b506102c6610731565b6040518082815260200191505060405180910390f35b3480156102e857600080fd5b506102f1610737565b005b3480156102ff57600080fd5b5061031e600480360381019080803590602001909291905050506107f7565b604051808981526020018867ffffffffffffffff1667ffffffffffffffff1681526020018763ffffffff1663ffffffff1681526020018663ffffffff1663ffffffff1681526020018563ffffffff1663ffffffff1681526020018461ffff1661ffff1681526020018361ffff1661ffff1681526020018267ffffffffffffffff1667ffffffffffffffff1681526020019850505050505050505060405180910390f35b3480156103cd57600080fd5b506103ec600480360381019080803590602001909291905050506108c2565b604051808263ffffffff1663ffffffff16815260200191505060405180910390f35b34801561041a57600080fd5b50610439600480360381019080803590602001909291905050506108f1565b604051808273ffffffffffffffffffffffffffffffffffffffff1673ffffffffffffffffffffffffffffffffffffffff16815260200191505060405180910390f35b34801561048757600080fd5b506104bc600480360381019080803573ffffffffffffffffffffffffffffffffffffffff169060200190929190505050610924565b6040518082815260200191505060405180910390f35b6000809054906101000a900473ffffffffffffffffffffffffffffffffffffffff1681565b6000809054906101000a900473ffffffffffffffffffffffffffffffffffffffff1673ffffffffffffffffffffffffffffffffffffffff163373ffffffffffffffffffffffffffffffffffffffff1614151561055257600080fd5b806000806101000a81548173ffffffffffffffffffffffffffffffffffffffff021916908373ffffffffffffffffffffffffffffffffffffffff16021790555050565b6000809054906101000a900473ffffffffffffffffffffffffffffffffffffffff1673ffffffffffffffffffffffffffffffffffffffff163373ffffffffffffffffffffffffffffffffffffffff161415156105f057600080fd5b600060149054906101000a900460ff16151561060b57600080fd5b60008060146101000a81548160ff0219169083151502179055507f7805862f689e2f13df9f062ff482ad3ad112aca9e0847911ed832e158c525b3360405160405180910390a1565b60086020528060005260406000206000915054906101000a900473ffffffffffffffffffffffffffffffffffffffff1681565b60076020528060005260406000206000915054906101000a900473ffffffffffffffffffffffffffffffffffffffff1681565b6000809054906101000a900473ffffffffffffffffffffffffffffffffffffffff1673ffffffffffffffffffffffffffffffffffffffff163373ffffffffffffffffffffffffffffffffffffffff1614151561071457600080fd5b8060038190555050565b600060149054906101000a900460ff1681565b60035481565b6000809054906101000a900473ffffffffffffffffffffffffffffffffffffffff1673ffffffffffffffffffffffffffffffffffffffff163373ffffffffffffffffffffffffffffffffffffffff1614151561079257600080fd5b600060149054906101000a900460ff161515156107ae57600080fd5b6001600060146101000a81548160ff0219169083151502179055507f6985a02210a168e66602d3235cb6db0e70f92b3ba4d376a33c0f3d9434bff62560405160405180910390a1565b60048181548110151561080657fe5b90600052602060002090600202016000915090508060000154908060010160009054906101000a900467ffffffffffffffff16908060010160089054906101000a900463ffffffff169080600101600c9054906101000a900463ffffffff16908060010160109054906101000a900463ffffffff16908060010160149054906101000a900461ffff16908060010160169054906101000a900461ffff16908060010160189054906101000a900467ffffffffffffffff16905088565b600181600e811015156108d157fe5b60089182820401919006600402915054906101000a900463ffffffff1681565b60056020528060005260406000206000915054906101000a900473ffffffffffffffffffffffffffffffffffffffff1681565b600660205280600052604060002060009150905054815600a165627a7a723058203857d9b0effe45c32b8c52526161c5b01eaaaa9200c4a2df788220e619610b8d0029",
  "source": "// SPDX-License-Identifier: MIT\npragma solidity >=0.4.22 <0.8.0;\n\nimport \"./BasicControl.sol\";\n\ncontract KittyBase is BasicControl {\n     /*** EVENTS ***/\n    event Birth(address owner, uint256 kittyId, uint256 matronId, uint256 sireId, uint256 genes);\n\n    event Transfer(address from, address to, uint256 tokenId);\n    /*** DATA TYPES ***/\n    //status for the kitty\n    //exactly two 256 bit words. See http://solidity.readthedocs.io/en/develop/miscellaneous.html\n    //That is why we move relationship out of struct Kitty\n    //Mark for more research\n    struct Kitty {\n        uint256 genes;\n\n        //timestamp for seconds\n        uint64 birthTime;\n\n        uint32 matronId;\n\n        uint32 sireId;\n\n        uint32 sireWithId;\n\n        //(i.e. max(matron.generation, sire.generation) + 1)\n        uint16 generation;\n\n        //Starts at floor(generation/2) for others.  Incremented by one for each successful breeding action\n        uint16 cooldownIndex;\n\n        uint64 cooldownEndBlock;\n    }\n\n    /***CONSTANTS***/\n    uint32[14] public cooldowns = [\n        uint32(1 minutes),\n        uint32(2 minutes),\n        uint32(5 minutes),\n        uint32(10 minutes),\n        uint32(30 minutes),\n        uint32(1 hours),\n        uint32(2 hours),\n        uint32(4 hours),\n        uint32(8 hours),\n        uint32(16 hours),\n        uint32(1 days),\n        uint32(2 days),\n        uint32(4 days),\n        uint32(7 days)\n    ];\n\n    /***STORAGE***/\n    uint256 public secondsPerBlock = 15;\n\n    Kitty[] public kitties;\n\n    mapping(uint256 => address) public kittyIndexToOwner;\n    mapping(address =>uint256) public ownershipTokenCount;\n    //Allow someone to transfer this kitty to another from owner\n    mapping(uint256 => address) public kittyIndexToApproved;\n    //Allow someone to breed with this kitty\n    mapping(uint256 => address) public sireAllowedToAddress;\n\n    //No condition check. Because this is an internal method. Condition check should be put for external/public\n    function _createKitty(\n        uint256 _matronId,\n        uint256 _sireId,\n        uint256 _generation,\n        uint256 _genes,\n        address _owner\n    ) internal returns (uint)\n    {\n        //Require that data are in actual range\n        require(_matronId == uint32(_matronId));\n        require(_sireId == uint32(_sireId));\n        require(_generation == uint16(_generation));\n\n        //Build a cat and store to kitties\n        uint16 cooldownIndex = uint16(_generation / 2);\n        if(cooldownIndex > 13) cooldownIndex = 13;\n        \n        Kitty memory kitty = Kitty({\n            genes: _genes,\n            birthTime: uint64(now),\n            matronId: uint32(_matronId),\n            sireId: uint32(_sireId),\n            sireWithId: 0,\n            generation: uint16(_generation),\n            cooldownIndex: cooldownIndex,\n            cooldownEndBlock: 0\n        });\n        uint256 newKittieId = kitties.push(kitty) - 1;\n        require(newKittieId == uint32(newKittieId));\n        emit Birth(_owner, newKittieId, _matronId, _sireId, _genes);\n\n        //Init ownership info\n        _transfer(address(0), _owner, newKittieId);\n\n        //Return\n        return newKittieId;\n    }\n\n    function _transfer(address _from, address _to, uint256 _tokenId) internal {\n        kittyIndexToOwner[_tokenId] = _to;\n        ownershipTokenCount[_to]++;\n        \n        if(_from != address(0)){\n            ownershipTokenCount[_from]--;\n            //clear any previously approved transfer rights\n            delete kittyIndexToApproved[_tokenId];\n            //once the kitten is transferred also clear sire allowances\n            delete sireAllowedToAddress[_tokenId];\n        }\n        emit Transfer(_from, _to, _tokenId);\n    }\n\n    function setSecondsPerBlock(uint256 sec) external onlyCLevel {\n        secondsPerBlock = sec;\n    }\n}\n",
  "sourcePath": "D:\\github\\mason\\simpleCryptoPet\\contracts\\KittyBase.sol",
  "compiler": {
    "name": "solc",
    "version": "0.4.25+commit.59dbf8f1.Emscripten.clang"
  },
  "schemaVersion": "3.2.5",
  "updatedAt": "2020-10-02T16:38:57.690Z",
  "devdoc": {
    "methods": {}
  },
  "userdoc": {
    "methods": {}
  }
}