{
  "contractName": "KittyAuction",
  "abi": [
    {
      "constant": true,
      "inputs": [
        {
          "name": "_interfaceID",
          "type": "bytes4"
        }
      ],
      "name": "supportsInterface",
      "outputs": [
        {
          "name": "",
          "type": "bool"
        }
      ],
      "payable": false,
      "stateMutability": "view",
      "type": "function"
    },
    {
      "constant": true,
      "inputs": [],
      "name": "name",
      "outputs": [
        {
          "name": "",
          "type": "string"
        }
      ],
      "payable": false,
      "stateMutability": "view",
      "type": "function"
    },
    {
      "constant": false,
      "inputs": [
        {
          "name": "_to",
          "type": "address"
        },
        {
          "name": "_tokenId",
          "type": "uint256"
        }
      ],
      "name": "approve",
      "outputs": [],
      "payable": false,
      "stateMutability": "nonpayable",
      "type": "function"
    },
    {
      "constant": true,
      "inputs": [],
      "name": "ceoAddress",
      "outputs": [
        {
          "name": "",
          "type": "address"
        }
      ],
      "payable": false,
      "stateMutability": "view",
      "type": "function"
    },
    {
      "constant": true,
      "inputs": [],
      "name": "totalSupply",
      "outputs": [
        {
          "name": "total",
          "type": "uint256"
        }
      ],
      "payable": false,
      "stateMutability": "view",
      "type": "function"
    },
    {
      "constant": true,
      "inputs": [],
      "name": "pregnantKitties",
      "outputs": [
        {
          "name": "",
          "type": "uint256"
        }
      ],
      "payable": false,
      "stateMutability": "view",
      "type": "function"
    },
    {
      "constant": true,
      "inputs": [],
      "name": "siringAuction",
      "outputs": [
        {
          "name": "",
          "type": "address"
        }
      ],
      "payable": false,
      "stateMutability": "view",
      "type": "function"
    },
    {
      "constant": false,
      "inputs": [
        {
          "name": "_from",
          "type": "address"
        },
        {
          "name": "_to",
          "type": "address"
        },
        {
          "name": "_tokenId",
          "type": "uint256"
        }
      ],
      "name": "transferFrom",
      "outputs": [],
      "payable": false,
      "stateMutability": "nonpayable",
      "type": "function"
    },
    {
      "constant": false,
      "inputs": [
        {
          "name": "_ceo",
          "type": "address"
        }
      ],
      "name": "setCEO",
      "outputs": [],
      "payable": false,
      "stateMutability": "nonpayable",
      "type": "function"
    },
    {
      "constant": false,
      "inputs": [],
      "name": "unpause",
      "outputs": [],
      "payable": false,
      "stateMutability": "nonpayable",
      "type": "function"
    },
    {
      "constant": true,
      "inputs": [
        {
          "name": "",
          "type": "uint256"
        }
      ],
      "name": "sireAllowedToAddress",
      "outputs": [
        {
          "name": "",
          "type": "address"
        }
      ],
      "payable": false,
      "stateMutability": "view",
      "type": "function"
    },
    {
      "constant": true,
      "inputs": [
        {
          "name": "",
          "type": "uint256"
        }
      ],
      "name": "kittyIndexToApproved",
      "outputs": [
        {
          "name": "",
          "type": "address"
        }
      ],
      "payable": false,
      "stateMutability": "view",
      "type": "function"
    },
    {
      "constant": false,
      "inputs": [
        {
          "name": "val",
          "type": "uint256"
        }
      ],
      "name": "setAutoBirthFee",
      "outputs": [],
      "payable": false,
      "stateMutability": "nonpayable",
      "type": "function"
    },
    {
      "constant": false,
      "inputs": [
        {
          "name": "_addr",
          "type": "address"
        },
        {
          "name": "_sireId",
          "type": "uint256"
        }
      ],
      "name": "approveSiring",
      "outputs": [],
      "payable": false,
      "stateMutability": "nonpayable",
      "type": "function"
    },
    {
      "constant": false,
      "inputs": [
        {
          "name": "sec",
          "type": "uint256"
        }
      ],
      "name": "setSecondsPerBlock",
      "outputs": [],
      "payable": false,
      "stateMutability": "nonpayable",
      "type": "function"
    },
    {
      "constant": true,
      "inputs": [],
      "name": "paused",
      "outputs": [
        {
          "name": "",
          "type": "bool"
        }
      ],
      "payable": false,
      "stateMutability": "view",
      "type": "function"
    },
    {
      "constant": true,
      "inputs": [
        {
          "name": "_tokenId",
          "type": "uint256"
        }
      ],
      "name": "ownerOf",
      "outputs": [
        {
          "name": "owner",
          "type": "address"
        }
      ],
      "payable": false,
      "stateMutability": "view",
      "type": "function"
    },
    {
      "constant": true,
      "inputs": [
        {
          "name": "_owner",
          "type": "address"
        }
      ],
      "name": "balanceOf",
      "outputs": [
        {
          "name": "balance",
          "type": "uint256"
        }
      ],
      "payable": false,
      "stateMutability": "view",
      "type": "function"
    },
    {
      "constant": true,
      "inputs": [],
      "name": "secondsPerBlock",
      "outputs": [
        {
          "name": "",
          "type": "uint256"
        }
      ],
      "payable": false,
      "stateMutability": "view",
      "type": "function"
    },
    {
      "constant": false,
      "inputs": [
        {
          "name": "geneScienceContract",
          "type": "address"
        }
      ],
      "name": "setGeneScienceInterface",
      "outputs": [],
      "payable": false,
      "stateMutability": "nonpayable",
      "type": "function"
    },
    {
      "constant": false,
      "inputs": [],
      "name": "pause",
      "outputs": [],
      "payable": false,
      "stateMutability": "nonpayable",
      "type": "function"
    },
    {
      "constant": false,
      "inputs": [
        {
          "name": "_matronId",
          "type": "uint256"
        }
      ],
      "name": "giveBirth",
      "outputs": [
        {
          "name": "",
          "type": "uint256"
        }
      ],
      "payable": false,
      "stateMutability": "nonpayable",
      "type": "function"
    },
    {
      "constant": true,
      "inputs": [
        {
          "name": "",
          "type": "uint256"
        }
      ],
      "name": "kitties",
      "outputs": [
        {
          "name": "genes",
          "type": "uint256"
        },
        {
          "name": "birthTime",
          "type": "uint64"
        },
        {
          "name": "matronId",
          "type": "uint32"
        },
        {
          "name": "sireId",
          "type": "uint32"
        },
        {
          "name": "sireWithId",
          "type": "uint32"
        },
        {
          "name": "generation",
          "type": "uint16"
        },
        {
          "name": "cooldownIndex",
          "type": "uint16"
        },
        {
          "name": "cooldownEndBlock",
          "type": "uint64"
        }
      ],
      "payable": false,
      "stateMutability": "view",
      "type": "function"
    },
    {
      "constant": true,
      "inputs": [],
      "name": "symbol",
      "outputs": [
        {
          "name": "",
          "type": "string"
        }
      ],
      "payable": false,
      "stateMutability": "view",
      "type": "function"
    },
    {
      "constant": true,
      "inputs": [
        {
          "name": "",
          "type": "uint256"
        }
      ],
      "name": "cooldowns",
      "outputs": [
        {
          "name": "",
          "type": "uint32"
        }
      ],
      "payable": false,
      "stateMutability": "view",
      "type": "function"
    },
    {
      "constant": true,
      "inputs": [
        {
          "name": "",
          "type": "uint256"
        }
      ],
      "name": "kittyIndexToOwner",
      "outputs": [
        {
          "name": "",
          "type": "address"
        }
      ],
      "payable": false,
      "stateMutability": "view",
      "type": "function"
    },
    {
      "constant": false,
      "inputs": [
        {
          "name": "_to",
          "type": "address"
        },
        {
          "name": "_tokenId",
          "type": "uint256"
        }
      ],
      "name": "transfer",
      "outputs": [],
      "payable": false,
      "stateMutability": "nonpayable",
      "type": "function"
    },
    {
      "constant": true,
      "inputs": [],
      "name": "autoBirthFee",
      "outputs": [
        {
          "name": "",
          "type": "uint256"
        }
      ],
      "payable": false,
      "stateMutability": "view",
      "type": "function"
    },
    {
      "constant": true,
      "inputs": [
        {
          "name": "",
          "type": "address"
        }
      ],
      "name": "ownershipTokenCount",
      "outputs": [
        {
          "name": "",
          "type": "uint256"
        }
      ],
      "payable": false,
      "stateMutability": "view",
      "type": "function"
    },
    {
      "constant": true,
      "inputs": [],
      "name": "saleAuction",
      "outputs": [
        {
          "name": "",
          "type": "address"
        }
      ],
      "payable": false,
      "stateMutability": "view",
      "type": "function"
    },
    {
      "constant": true,
      "inputs": [],
      "name": "geneScience",
      "outputs": [
        {
          "name": "",
          "type": "address"
        }
      ],
      "payable": false,
      "stateMutability": "view",
      "type": "function"
    },
    {
      "constant": false,
      "inputs": [
        {
          "name": "_matronId",
          "type": "uint256"
        },
        {
          "name": "_sireId",
          "type": "uint256"
        }
      ],
      "name": "breedWithAuto",
      "outputs": [],
      "payable": true,
      "stateMutability": "payable",
      "type": "function"
    },
    {
      "anonymous": false,
      "inputs": [
        {
          "indexed": false,
          "name": "owner",
          "type": "address"
        },
        {
          "indexed": false,
          "name": "matronId",
          "type": "uint256"
        },
        {
          "indexed": false,
          "name": "sireId",
          "type": "uint256"
        },
        {
          "indexed": false,
          "name": "cooldownEndBlock",
          "type": "uint256"
        }
      ],
      "name": "Pregnant",
      "type": "event"
    },
    {
      "anonymous": false,
      "inputs": [
        {
          "indexed": false,
          "name": "from",
          "type": "address"
        },
        {
          "indexed": false,
          "name": "to",
          "type": "address"
        },
        {
          "indexed": false,
          "name": "tokenId",
          "type": "uint256"
        }
      ],
      "name": "Transfer",
      "type": "event"
    },
    {
      "anonymous": false,
      "inputs": [
        {
          "indexed": false,
          "name": "owner",
          "type": "address"
        },
        {
          "indexed": false,
          "name": "approved",
          "type": "address"
        },
        {
          "indexed": false,
          "name": "tokenId",
          "type": "uint256"
        }
      ],
      "name": "Approval",
      "type": "event"
    },
    {
      "anonymous": false,
      "inputs": [
        {
          "indexed": false,
          "name": "owner",
          "type": "address"
        },
        {
          "indexed": false,
          "name": "kittyId",
          "type": "uint256"
        },
        {
          "indexed": false,
          "name": "matronId",
          "type": "uint256"
        },
        {
          "indexed": false,
          "name": "sireId",
          "type": "uint256"
        },
        {
          "indexed": false,
          "name": "genes",
          "type": "uint256"
        }
      ],
      "name": "Birth",
      "type": "event"
    },
    {
      "anonymous": false,
      "inputs": [],
      "name": "Pause",
      "type": "event"
    },
    {
      "anonymous": false,
      "inputs": [],
      "name": "Unpause",
      "type": "event"
    },
    {
      "constant": false,
      "inputs": [
        {
          "name": "_address",
          "type": "address"
        }
      ],
      "name": "setSaleAuctionAddress",
      "outputs": [],
      "payable": false,
      "stateMutability": "nonpayable",
      "type": "function"
    },
    {
      "constant": false,
      "inputs": [
        {
          "name": "_address",
          "type": "address"
        }
      ],
      "name": "setSiringAuctionAddress",
      "outputs": [],
      "payable": false,
      "stateMutability": "nonpayable",
      "type": "function"
    },
    {
      "constant": false,
      "inputs": [
        {
          "name": "_kittyId",
          "type": "uint256"
        },
        {
          "name": "_startingPrice",
          "type": "uint256"
        },
        {
          "name": "_endingPrice",
          "type": "uint256"
        },
        {
          "name": "_duration",
          "type": "uint256"
        }
      ],
      "name": "createSaleAuction",
      "outputs": [],
      "payable": false,
      "stateMutability": "nonpayable",
      "type": "function"
    },
    {
      "constant": false,
      "inputs": [
        {
          "name": "_kittyId",
          "type": "uint256"
        }
      ],
      "name": "bidOnSaleAuction",
      "outputs": [],
      "payable": true,
      "stateMutability": "payable",
      "type": "function"
    },
    {
      "constant": false,
      "inputs": [
        {
          "name": "_kittyId",
          "type": "uint256"
        },
        {
          "name": "_startingPrice",
          "type": "uint256"
        },
        {
          "name": "_endingPrice",
          "type": "uint256"
        },
        {
          "name": "_duration",
          "type": "uint256"
        }
      ],
      "name": "createSiringAuction",
      "outputs": [],
      "payable": false,
      "stateMutability": "nonpayable",
      "type": "function"
    },
    {
      "constant": false,
      "inputs": [
        {
          "name": "_sireId",
          "type": "uint256"
        },
        {
          "name": "_matronId",
          "type": "uint256"
        }
      ],
      "name": "bidOnSiringAuction",
      "outputs": [],
      "payable": true,
      "stateMutability": "payable",
      "type": "function"
    },
    {
      "constant": false,
      "inputs": [],
      "name": "withdrawAuctionBalances",
      "outputs": [],
      "payable": false,
      "stateMutability": "nonpayable",
      "type": "function"
    }
  ],
  "bytecode": "0x608060405260008060146101000a81548160ff0219169083151502179055506101c060405190810160405280603c63ffffffff1663ffffffff168152602001607863ffffffff1663ffffffff16815260200161012c63ffffffff1663ffffffff16815260200161025863ffffffff1663ffffffff16815260200161070863ffffffff1663ffffffff168152602001610e1063ffffffff1663ffffffff168152602001611c2063ffffffff1663ffffffff16815260200161384063ffffffff1663ffffffff16815260200161708063ffffffff1663ffffffff16815260200161e10063ffffffff1663ffffffff1681526020016201518063ffffffff1663ffffffff1681526020016202a30063ffffffff1663ffffffff1681526020016205460063ffffffff1663ffffffff16815260200162093a8063ffffffff1663ffffffff16815250600190600e620001559291906200017a565b50600f60035566071afd498d00006009553480156200017357600080fd5b506200025a565b82600e600701600890048101928215620002115791602002820160005b83821115620001dd57835183826101000a81548163ffffffff021916908363ffffffff160217905550926020019260040160208160030104928301926001030262000197565b80156200020f5782816101000a81549063ffffffff0219169055600401602081600301049283019260010302620001dd565b505b50905062000220919062000224565b5090565b6200025791905b808211156200025357600081816101000a81549063ffffffff0219169055506001016200022b565b5090565b90565b6134f4806200026a6000396000f3006080604052600436106101e3576000357c0100000000000000000000000000000000000000000000000000000000900463ffffffff16806301ffc9a7146101e857806306fdde031461024c578063095ea7b3146102dc5780630a0f81681461032957806314001f4c1461038057806318160ddd146103c3578063183a7947146103ee57806321717ebf1461041957806323b872dd1461047057806327d7874c146104dd5780633d7d3f5a146105205780633f4ba83a1461056b57806346116e6f14610582578063481af3d3146105ef5780634ad8c9381461065c5780634b85fd55146106a75780634dfff04f146106d45780635663896e146107215780635c975abb1461074e5780636352211e1461077d5780636fbde40d146107ea57806370a082311461082d5780637a7d4937146108845780637ebe6ed4146108af5780638456cb59146108f257806388c2a0bf146109095780638cc51eda1461094a57806391876e5714610a1857806395d89b4114610a2f5780639d6fac6f14610abf578063a45f4bfc14610b0c578063a9059cbb14610b79578063ad25ce5714610bc6578063b0c35c0514610be6578063cec21acb14610c11578063e6cbe35114610c68578063ed60ade614610cbf578063f2b47d5214610ce9578063f7d8c88314610d40575b600080fd5b3480156101f457600080fd5b5061023260048036038101908080357bffffffffffffffffffffffffffffffffffffffffffffffffffffffff19169060200190929190505050610d6a565b604051808215151515815260200191505060405180910390f35b34801561025857600080fd5b5061026161100d565b6040518080602001828103825283818151815260200191508051906020019080838360005b838110156102a1578082015181840152602081019050610286565b50505050905090810190601f1680156102ce5780820380516001836020036101000a031916815260200191505b509250505060405180910390f35b3480156102e857600080fd5b50610327600480360381019080803573ffffffffffffffffffffffffffffffffffffffff16906020019092919080359060200190929190505050611046565b005b34801561033557600080fd5b5061033e61119b565b604051808273ffffffffffffffffffffffffffffffffffffffff1673ffffffffffffffffffffffffffffffffffffffff16815260200191505060405180910390f35b34801561038c57600080fd5b506103c1600480360381019080803573ffffffffffffffffffffffffffffffffffffffff1690602001909291905050506111c0565b005b3480156103cf57600080fd5b506103d8611265565b6040518082815260200191505060405180910390f35b3480156103fa57600080fd5b50610403611272565b6040518082815260200191505060405180910390f35b34801561042557600080fd5b5061042e611278565b604051808273ffffffffffffffffffffffffffffffffffffffff1673ffffffffffffffffffffffffffffffffffffffff16815260200191505060405180910390f35b34801561047c57600080fd5b506104db600480360381019080803573ffffffffffffffffffffffffffffffffffffffff169060200190929190803573ffffffffffffffffffffffffffffffffffffffff1690602001909291908035906020019092919050505061129e565b005b3480156104e957600080fd5b5061051e600480360381019080803573ffffffffffffffffffffffffffffffffffffffff16906020019092919050505061140a565b005b34801561052c57600080fd5b50610569600480360381019080803590602001909291908035906020019092919080359060200190929190803590602001909291905050506114a8565b005b34801561057757600080fd5b5061058061160c565b005b34801561058e57600080fd5b506105ad600480360381019080803590602001909291905050506116ca565b604051808273ffffffffffffffffffffffffffffffffffffffff1673ffffffffffffffffffffffffffffffffffffffff16815260200191505060405180910390f35b3480156105fb57600080fd5b5061061a600480360381019080803590602001909291905050506116fd565b604051808273ffffffffffffffffffffffffffffffffffffffff1673ffffffffffffffffffffffffffffffffffffffff16815260200191505060405180910390f35b34801561066857600080fd5b506106a560048036038101908080359060200190929190803590602001909291908035906020019092919080359060200190929190505050611730565b005b3480156106b357600080fd5b506106d26004803603810190808035906020019092919050505061189b565b005b3480156106e057600080fd5b5061071f600480360381019080803573ffffffffffffffffffffffffffffffffffffffff16906020019092919080359060200190929190505050611900565b005b34801561072d57600080fd5b5061074c60048036038101908080359060200190929190505050611987565b005b34801561075a57600080fd5b506107636119ec565b604051808215151515815260200191505060405180910390f35b34801561078957600080fd5b506107a8600480360381019080803590602001909291905050506119ff565b604051808273ffffffffffffffffffffffffffffffffffffffff1673ffffffffffffffffffffffffffffffffffffffff16815260200191505060405180910390f35b3480156107f657600080fd5b5061082b600480360381019080803573ffffffffffffffffffffffffffffffffffffffff169060200190929190505050611a78565b005b34801561083957600080fd5b5061086e600480360381019080803573ffffffffffffffffffffffffffffffffffffffff169060200190929190505050611b1d565b6040518082815260200191505060405180910390f35b34801561089057600080fd5b50610899611b66565b6040518082815260200191505060405180910390f35b3480156108bb57600080fd5b506108f0600480360381019080803573ffffffffffffffffffffffffffffffffffffffff169060200190929190505050611b6c565b005b3480156108fe57600080fd5b50610907611c0b565b005b34801561091557600080fd5b5061093460048036038101908080359060200190929190505050611ccb565b6040518082815260200191505060405180910390f35b34801561095657600080fd5b5061097560048036038101908080359060200190929190505050611f95565b604051808981526020018867ffffffffffffffff1667ffffffffffffffff1681526020018763ffffffff1663ffffffff1681526020018663ffffffff1663ffffffff1681526020018563ffffffff1663ffffffff1681526020018461ffff1661ffff1681526020018361ffff1661ffff1681526020018267ffffffffffffffff1667ffffffffffffffff1681526020019850505050505050505060405180910390f35b348015610a2457600080fd5b50610a2d612060565b005b348015610a3b57600080fd5b50610a446121f9565b6040518080602001828103825283818151815260200191508051906020019080838360005b83811015610a84578082015181840152602081019050610a69565b50505050905090810190601f168015610ab15780820380516001836020036101000a031916815260200191505b509250505060405180910390f35b348015610acb57600080fd5b50610aea60048036038101908080359060200190929190505050612232565b604051808263ffffffff1663ffffffff16815260200191505060405180910390f35b348015610b1857600080fd5b50610b3760048036038101908080359060200190929190505050612261565b604051808273ffffffffffffffffffffffffffffffffffffffff1673ffffffffffffffffffffffffffffffffffffffff16815260200191505060405180910390f35b348015610b8557600080fd5b50610bc4600480360381019080803573ffffffffffffffffffffffffffffffffffffffff16906020019092919080359060200190929190505050612294565b005b610be4600480360381019080803590602001909291905050506123ea565b005b348015610bf257600080fd5b50610bfb6125e6565b6040518082815260200191505060405180910390f35b348015610c1d57600080fd5b50610c52600480360381019080803573ffffffffffffffffffffffffffffffffffffffff1690602001909291905050506125ec565b6040518082815260200191505060405180910390f35b348015610c7457600080fd5b50610c7d612604565b604051808273ffffffffffffffffffffffffffffffffffffffff1673ffffffffffffffffffffffffffffffffffffffff16815260200191505060405180910390f35b610ce7600480360381019080803590602001909291908035906020019092919050505061262a565b005b348015610cf557600080fd5b50610cfe6128c7565b604051808273ffffffffffffffffffffffffffffffffffffffff1673ffffffffffffffffffffffffffffffffffffffff16815260200191505060405180910390f35b610d6860048036038101908080359060200190929190803590602001909291905050506128ed565b005b600060405180807f737570706f727473496e74657266616365286279746573342900000000000000815250601901905060405180910390207bffffffffffffffffffffffffffffffffffffffffffffffffffffffff1916827bffffffffffffffffffffffffffffffffffffffffffffffffffffffff19161480611006575060405180807f7472616e7366657246726f6d28616464726573732c616464726573732c75696e81526020017f74323536290000000000000000000000000000000000000000000000000000008152506025019050604051809103902060405180807f7472616e7366657228616464726573732c75696e7432353629000000000000008152506019019050604051809103902060405180807f617070726f766528616464726573732c75696e743235362900000000000000008152506018019050604051809103902060405180807f6f776e65724f662875696e7432353629000000000000000000000000000000008152506010019050604051809103902060405180807f62616c616e63654f6628616464726573732900000000000000000000000000008152506012019050604051809103902060405180807f746f74616c537570706c79282900000000000000000000000000000000000000815250600d019050604051809103902060405180807f73796d626f6c28290000000000000000000000000000000000000000000000008152506008019050604051809103902060405180807f6e616d652829000000000000000000000000000000000000000000000000000081525060060190506040518091039020181818181818187bffffffffffffffffffffffffffffffffffffffffffffffffffffffff1916827bffffffffffffffffffffffffffffffffffffffffffffffffffffffff1916145b9050919050565b6040805190810160405280600d81526020017f43727970746f4b6974746965730000000000000000000000000000000000000081525081565b600060149054906101000a900460ff1615151561106257600080fd5b8173ffffffffffffffffffffffffffffffffffffffff16600073ffffffffffffffffffffffffffffffffffffffff161415151561109e57600080fd5b8173ffffffffffffffffffffffffffffffffffffffff163073ffffffffffffffffffffffffffffffffffffffff16141515156110d957600080fd5b6110e333826129d8565b15156110ee57600080fd5b6110f88282612a44565b7f8c5be1e5ebec7d5bd14f71427d1e84f3dd0314c0f7b2291e5b200ac8c7c3b925338383604051808473ffffffffffffffffffffffffffffffffffffffff1673ffffffffffffffffffffffffffffffffffffffff1681526020018373ffffffffffffffffffffffffffffffffffffffff1673ffffffffffffffffffffffffffffffffffffffff168152602001828152602001935050505060405180910390a15050565b6000809054906101000a900473ffffffffffffffffffffffffffffffffffffffff1681565b60008060009054906101000a900473ffffffffffffffffffffffffffffffffffffffff1673ffffffffffffffffffffffffffffffffffffffff163373ffffffffffffffffffffffffffffffffffffffff1614151561121d57600080fd5b81905080600d60006101000a81548173ffffffffffffffffffffffffffffffffffffffff021916908373ffffffffffffffffffffffffffffffffffffffff1602179055505050565b6000600480549050905090565b600a5481565b600d60009054906101000a900473ffffffffffffffffffffffffffffffffffffffff1681565b600060149054906101000a900460ff161515156112ba57600080fd5b8173ffffffffffffffffffffffffffffffffffffffff16600073ffffffffffffffffffffffffffffffffffffffff16141515156112f657600080fd5b8173ffffffffffffffffffffffffffffffffffffffff163073ffffffffffffffffffffffffffffffffffffffff161415151561133157600080fd5b61133b83826129d8565b151561134657600080fd5b6113503382612a9a565b151561135b57600080fd5b611366838383612b06565b7fddf252ad1be2c89b69c2b068fc378daa952ba7f163c4a11628f55a4df523b3ef838383604051808473ffffffffffffffffffffffffffffffffffffffff1673ffffffffffffffffffffffffffffffffffffffff1681526020018373ffffffffffffffffffffffffffffffffffffffff1673ffffffffffffffffffffffffffffffffffffffff168152602001828152602001935050505060405180910390a1505050565b6000809054906101000a900473ffffffffffffffffffffffffffffffffffffffff1673ffffffffffffffffffffffffffffffffffffffff163373ffffffffffffffffffffffffffffffffffffffff1614151561146557600080fd5b806000806101000a81548173ffffffffffffffffffffffffffffffffffffffff021916908373ffffffffffffffffffffffffffffffffffffffff16021790555050565b600060149054906101000a900460ff161515156114c457600080fd5b6114ce33856129d8565b15156114d957600080fd5b6114e33085612a44565b600c60009054906101000a900473ffffffffffffffffffffffffffffffffffffffff1673ffffffffffffffffffffffffffffffffffffffff166327ebe40a85858585336040518663ffffffff167c010000000000000000000000000000000000000000000000000000000002815260040180868152602001856fffffffffffffffffffffffffffffffff168152602001846fffffffffffffffffffffffffffffffff1681526020018367ffffffffffffffff1681526020018273ffffffffffffffffffffffffffffffffffffffff1673ffffffffffffffffffffffffffffffffffffffff16815260200195505050505050600060405180830381600087803b1580156115ee57600080fd5b505af1158015611602573d6000803e3d6000fd5b5050505050505050565b6000809054906101000a900473ffffffffffffffffffffffffffffffffffffffff1673ffffffffffffffffffffffffffffffffffffffff163373ffffffffffffffffffffffffffffffffffffffff1614151561166757600080fd5b600060149054906101000a900460ff16151561168257600080fd5b60008060146101000a81548160ff0219169083151502179055507f7805862f689e2f13df9f062ff482ad3ad112aca9e0847911ed832e158c525b3360405160405180910390a1565b60086020528060005260406000206000915054906101000a900473ffffffffffffffffffffffffffffffffffffffff1681565b60076020528060005260406000206000915054906101000a900473ffffffffffffffffffffffffffffffffffffffff1681565b60008060149054906101000a900460ff1615151561174d57600080fd5b61175733866129d8565b151561176257600080fd5b60048581548110151561177157fe5b9060005260206000209060020201905061178a81612d3e565b151561179557600080fd5b61179f3086612a44565b600d60009054906101000a900473ffffffffffffffffffffffffffffffffffffffff1673ffffffffffffffffffffffffffffffffffffffff166327ebe40a86868686336040518663ffffffff167c0100000000000000000000000000000000000000000000000000000000028152600401808681526020018581526020018481526020018381526020018273ffffffffffffffffffffffffffffffffffffffff1673ffffffffffffffffffffffffffffffffffffffff16815260200195505050505050600060405180830381600087803b15801561187c57600080fd5b505af1158015611890573d6000803e3d6000fd5b505050505050505050565b6000809054906101000a900473ffffffffffffffffffffffffffffffffffffffff1673ffffffffffffffffffffffffffffffffffffffff163373ffffffffffffffffffffffffffffffffffffffff161415156118f657600080fd5b8060098190555050565b600060149054906101000a900460ff1615151561191c57600080fd5b61192633826129d8565b151561193157600080fd5b816008600083815260200190815260200160002060006101000a81548173ffffffffffffffffffffffffffffffffffffffff021916908373ffffffffffffffffffffffffffffffffffffffff1602179055505050565b6000809054906101000a900473ffffffffffffffffffffffffffffffffffffffff1673ffffffffffffffffffffffffffffffffffffffff163373ffffffffffffffffffffffffffffffffffffffff161415156119e257600080fd5b8060038190555050565b600060149054906101000a900460ff1681565b60006005600083815260200190815260200160002060009054906101000a900473ffffffffffffffffffffffffffffffffffffffff169050600073ffffffffffffffffffffffffffffffffffffffff168173ffffffffffffffffffffffffffffffffffffffff1614151515611a7357600080fd5b919050565b60008060009054906101000a900473ffffffffffffffffffffffffffffffffffffffff1673ffffffffffffffffffffffffffffffffffffffff163373ffffffffffffffffffffffffffffffffffffffff16141515611ad557600080fd5b81905080600c60006101000a81548173ffffffffffffffffffffffffffffffffffffffff021916908373ffffffffffffffffffffffffffffffffffffffff1602179055505050565b6000600660008373ffffffffffffffffffffffffffffffffffffffff1673ffffffffffffffffffffffffffffffffffffffff168152602001908152602001600020549050919050565b60035481565b6000809054906101000a900473ffffffffffffffffffffffffffffffffffffffff1673ffffffffffffffffffffffffffffffffffffffff163373ffffffffffffffffffffffffffffffffffffffff16141515611bc757600080fd5b80600b60006101000a81548173ffffffffffffffffffffffffffffffffffffffff021916908373ffffffffffffffffffffffffffffffffffffffff16021790555050565b6000809054906101000a900473ffffffffffffffffffffffffffffffffffffffff1673ffffffffffffffffffffffffffffffffffffffff163373ffffffffffffffffffffffffffffffffffffffff16141515611c6657600080fd5b600060149054906101000a900460ff16151515611c8257600080fd5b6001600060146101000a81548160ff0219169083151502179055507f6985a02210a168e66602d3235cb6db0e70f92b3ba4d376a33c0f3d9434bff62560405160405180910390a1565b60008060008060008060008060149054906101000a900460ff16151515611cf157600080fd5b600488815481101515611d0057fe5b90600052602060002090600202019550611d1986612d91565b1515611d2457600080fd5b8560010160109054906101000a900463ffffffff1663ffffffff169450600485815481101515611d5057fe5b906000526020600020906002020193508360010160149054906101000a900461ffff1661ffff168660010160149054906101000a900461ffff1661ffff1611611dab578360010160149054906101000a900461ffff16611dbf565b8560010160149054906101000a900461ffff165b61ffff169250600b60009054906101000a900473ffffffffffffffffffffffffffffffffffffffff1673ffffffffffffffffffffffffffffffffffffffff16630d9f5aed8760000154866000015460018a60010160189054906101000a900467ffffffffffffffff16036040518463ffffffff167c0100000000000000000000000000000000000000000000000000000000028152600401808481526020018381526020018267ffffffffffffffff1681526020019350505050602060405180830381600087803b158015611e9357600080fd5b505af1158015611ea7573d6000803e3d6000fd5b505050506040513d6020811015611ebd57600080fd5b810190808051906020019092919050505091506005600089815260200190815260200160002060009054906101000a900473ffffffffffffffffffffffffffffffffffffffff169050611f168886600186018585612db7565b50600a60008154809291906001900391905055508560010160106101000a81549063ffffffff02191690553373ffffffffffffffffffffffffffffffffffffffff166108fc6009549081150290604051600060405180830381858888f19350505050158015611f89573d6000803e3d6000fd5b50505050505050919050565b600481815481101515611fa457fe5b90600052602060002090600202016000915090508060000154908060010160009054906101000a900467ffffffffffffffff16908060010160089054906101000a900463ffffffff169080600101600c9054906101000a900463ffffffff16908060010160109054906101000a900463ffffffff16908060010160149054906101000a900461ffff16908060010160169054906101000a900461ffff16908060010160189054906101000a900467ffffffffffffffff16905088565b6000809054906101000a900473ffffffffffffffffffffffffffffffffffffffff1673ffffffffffffffffffffffffffffffffffffffff163373ffffffffffffffffffffffffffffffffffffffff161415156120bb57600080fd5b600c60009054906101000a900473ffffffffffffffffffffffffffffffffffffffff1673ffffffffffffffffffffffffffffffffffffffff16635fd8c7106040518163ffffffff167c0100000000000000000000000000000000000000000000000000000000028152600401600060405180830381600087803b15801561214157600080fd5b505af1158015612155573d6000803e3d6000fd5b50505050600d60009054906101000a900473ffffffffffffffffffffffffffffffffffffffff1673ffffffffffffffffffffffffffffffffffffffff16635fd8c7106040518163ffffffff167c0100000000000000000000000000000000000000000000000000000000028152600401600060405180830381600087803b1580156121df57600080fd5b505af11580156121f3573d6000803e3d6000fd5b50505050565b6040805190810160405280600281526020017f434b00000000000000000000000000000000000000000000000000000000000081525081565b600181600e8110151561224157fe5b60089182820401919006600402915054906101000a900463ffffffff1681565b60056020528060005260406000206000915054906101000a900473ffffffffffffffffffffffffffffffffffffffff1681565b600060149054906101000a900460ff161515156122b057600080fd5b8173ffffffffffffffffffffffffffffffffffffffff16600073ffffffffffffffffffffffffffffffffffffffff16141515156122ec57600080fd5b8173ffffffffffffffffffffffffffffffffffffffff163073ffffffffffffffffffffffffffffffffffffffff161415151561232757600080fd5b61233133826129d8565b151561233c57600080fd5b612347338383612b06565b7fddf252ad1be2c89b69c2b068fc378daa952ba7f163c4a11628f55a4df523b3ef338383604051808473ffffffffffffffffffffffffffffffffffffffff1673ffffffffffffffffffffffffffffffffffffffff1681526020018373ffffffffffffffffffffffffffffffffffffffff1673ffffffffffffffffffffffffffffffffffffffff168152602001828152602001935050505060405180910390a15050565b60008060149054906101000a900460ff1615151561240757600080fd5b600c60009054906101000a900473ffffffffffffffffffffffffffffffffffffffff1673ffffffffffffffffffffffffffffffffffffffff1663c55d0f56836040518263ffffffff167c010000000000000000000000000000000000000000000000000000000002815260040180828152602001915050602060405180830381600087803b15801561249857600080fd5b505af11580156124ac573d6000803e3d6000fd5b505050506040513d60208110156124c257600080fd5b810190808051906020019092919050505090508034101515156124e457600080fd5b600c60009054906101000a900473ffffffffffffffffffffffffffffffffffffffff1673ffffffffffffffffffffffffffffffffffffffff1663454a2ab334846040518363ffffffff167c0100000000000000000000000000000000000000000000000000000000028152600401808281526020019150506000604051808303818588803b15801561257557600080fd5b505af1158015612589573d6000803e3d6000fd5b5050505050612599303384612b06565b3373ffffffffffffffffffffffffffffffffffffffff166108fc8234039081150290604051600060405180830381858888f193505050501580156125e1573d6000803e3d6000fd5b505050565b60095481565b60066020528060005260406000206000915090505481565b600c60009054906101000a900473ffffffffffffffffffffffffffffffffffffffff1681565b600080600060149054906101000a900460ff1615151561264957600080fd5b61265333846129d8565b151561265e57600080fd5b60048381548110151561266d57fe5b9060005260206000209060020201915061268682612d3e565b151561269157600080fd5b600d60009054906101000a900473ffffffffffffffffffffffffffffffffffffffff1673ffffffffffffffffffffffffffffffffffffffff1663c55d0f56856040518263ffffffff167c010000000000000000000000000000000000000000000000000000000002815260040180828152602001915050602060405180830381600087803b15801561272257600080fd5b505af1158015612736573d6000803e3d6000fd5b505050506040513d602081101561274c57600080fd5b810190808051906020019092919050505090506009548101341015151561277257600080fd5b600d60009054906101000a900473ffffffffffffffffffffffffffffffffffffffff1673ffffffffffffffffffffffffffffffffffffffff1663454a2ab36009543403866040518363ffffffff167c0100000000000000000000000000000000000000000000000000000000028152600401808281526020019150506000604051808303818588803b15801561280757600080fd5b505af115801561281b573d6000803e3d6000fd5b505050505061285e306005600087815260200190815260200160002060009054906101000a900473ffffffffffffffffffffffffffffffffffffffff1686612b06565b6128748363ffffffff168563ffffffff16613096565b3373ffffffffffffffffffffffffffffffffffffffff166108fc600954833403039081150290604051600060405180830381858888f193505050501580156128c0573d6000803e3d6000fd5b5050505050565b600b60009054906101000a900473ffffffffffffffffffffffffffffffffffffffff1681565b600080600060149054906101000a900460ff1615151561290c57600080fd5b600954341015151561291d57600080fd5b60008411801561292d5750600083115b151561293857600080fd5b61294233856129d8565b151561294d57600080fd5b6129578385613260565b151561296257600080fd5b60048481548110151561297157fe5b9060005260206000209060020201915061298a82612d3e565b151561299557600080fd5b6004838154811015156129a457fe5b906000526020600020906002020190506129bd81612d3e565b15156129c857600080fd5b6129d28484613096565b50505050565b60008273ffffffffffffffffffffffffffffffffffffffff166005600084815260200190815260200160002060009054906101000a900473ffffffffffffffffffffffffffffffffffffffff1673ffffffffffffffffffffffffffffffffffffffff1614905092915050565b816007600083815260200190815260200160002060006101000a81548173ffffffffffffffffffffffffffffffffffffffff021916908373ffffffffffffffffffffffffffffffffffffffff1602179055505050565b60008273ffffffffffffffffffffffffffffffffffffffff166007600084815260200190815260200160002060009054906101000a900473ffffffffffffffffffffffffffffffffffffffff1673ffffffffffffffffffffffffffffffffffffffff1614905092915050565b816005600083815260200190815260200160002060006101000a81548173ffffffffffffffffffffffffffffffffffffffff021916908373ffffffffffffffffffffffffffffffffffffffff160217905550600660008373ffffffffffffffffffffffffffffffffffffffff1673ffffffffffffffffffffffffffffffffffffffff16815260200190815260200160002060008154809291906001019190505550600073ffffffffffffffffffffffffffffffffffffffff168373ffffffffffffffffffffffffffffffffffffffff16141515612c9a57600660008473ffffffffffffffffffffffffffffffffffffffff1673ffffffffffffffffffffffffffffffffffffffff16815260200190815260200160002060008154809291906001900391905055506007600082815260200190815260200160002060006101000a81549073ffffffffffffffffffffffffffffffffffffffff02191690556008600082815260200190815260200160002060006101000a81549073ffffffffffffffffffffffffffffffffffffffff02191690555b7fddf252ad1be2c89b69c2b068fc378daa952ba7f163c4a11628f55a4df523b3ef838383604051808473ffffffffffffffffffffffffffffffffffffffff1673ffffffffffffffffffffffffffffffffffffffff1681526020018373ffffffffffffffffffffffffffffffffffffffff1673ffffffffffffffffffffffffffffffffffffffff168152602001828152602001935050505060405180910390a1505050565b6000808260010160109054906101000a900463ffffffff1663ffffffff16148015612d8a5750438260010160189054906101000a900467ffffffffffffffff1667ffffffffffffffff16105b9050919050565b6000808260010160109054906101000a900463ffffffff1663ffffffff16119050919050565b600080612dc2613454565b60008863ffffffff1689141515612dd857600080fd5b8763ffffffff1688141515612dec57600080fd5b8661ffff1687141515612dfe57600080fd5b600287811515612e0a57fe5b049250600d8361ffff161115612e1f57600d92505b610100604051908101604052808781526020014267ffffffffffffffff1681526020018a63ffffffff1681526020018963ffffffff168152602001600063ffffffff1681526020018861ffff1681526020018461ffff168152602001600067ffffffffffffffff1681525091506001600483908060018154018082558091505090600182039060005260206000209060020201600090919290919091506000820151816000015560208201518160010160006101000a81548167ffffffffffffffff021916908367ffffffffffffffff16021790555060408201518160010160086101000a81548163ffffffff021916908363ffffffff160217905550606082015181600101600c6101000a81548163ffffffff021916908363ffffffff16021790555060808201518160010160106101000a81548163ffffffff021916908363ffffffff16021790555060a08201518160010160146101000a81548161ffff021916908361ffff16021790555060c08201518160010160166101000a81548161ffff021916908361ffff16021790555060e08201518160010160186101000a81548167ffffffffffffffff021916908367ffffffffffffffff16021790555050500390508063ffffffff1681141515612ff857600080fd5b7f0a5311bd2a6608f08a180df2ee7c5946819a649b204b554bb8e39825b2c50ad585828b8b8a604051808673ffffffffffffffffffffffffffffffffffffffff1673ffffffffffffffffffffffffffffffffffffffff1681526020018581526020018481526020018381526020018281526020019550505050505060405180910390a161308760008683612b06565b80935050505095945050505050565b6000806004848154811015156130a857fe5b906000526020600020906002020191506004838154811015156130c757fe5b90600052602060002090600202019050828260010160106101000a81548163ffffffff021916908363ffffffff16021790555061310382613373565b61310c81613373565b6008600085815260200190815260200160002060006101000a81549073ffffffffffffffffffffffffffffffffffffffff02191690556008600084815260200190815260200160002060006101000a81549073ffffffffffffffffffffffffffffffffffffffff0219169055600a600081548092919060010191905055507f241ea03ca20251805084d27d4440371c34a0b85ff108f6bb5611248f73818b806005600086815260200190815260200160002060009054906101000a900473ffffffffffffffffffffffffffffffffffffffff1685858560010160189054906101000a900467ffffffffffffffff16604051808573ffffffffffffffffffffffffffffffffffffffff1673ffffffffffffffffffffffffffffffffffffffff1681526020018481526020018381526020018267ffffffffffffffff16815260200194505050505060405180910390a150505050565b60008060006005600085815260200190815260200160002060009054906101000a900473ffffffffffffffffffffffffffffffffffffffff1691506005600086815260200190815260200160002060009054906101000a900473ffffffffffffffffffffffffffffffffffffffff1690508073ffffffffffffffffffffffffffffffffffffffff168273ffffffffffffffffffffffffffffffffffffffff16148061336957508173ffffffffffffffffffffffffffffffffffffffff166008600087815260200190815260200160002060009054906101000a900473ffffffffffffffffffffffffffffffffffffffff1673ffffffffffffffffffffffffffffffffffffffff16145b9250505092915050565b60008060018360010160169054906101000a900461ffff1661ffff16600e8110151561339b57fe5b600891828204019190066004029054906101000a900463ffffffff169150436003548363ffffffff168115156133cd57fe5b04019050808360010160186101000a81548167ffffffffffffffff021916908367ffffffffffffffff160217905550600d8360010160169054906101000a900461ffff1661ffff16101561344f5760018360010160168282829054906101000a900461ffff160192506101000a81548161ffff021916908361ffff1602179055505b505050565b6101006040519081016040528060008152602001600067ffffffffffffffff168152602001600063ffffffff168152602001600063ffffffff168152602001600063ffffffff168152602001600061ffff168152602001600061ffff168152602001600067ffffffffffffffff16815250905600a165627a7a72305820fdf5537c4f1fa68c8871297432aaeb0496003252d5bd18499c36ea78a4093d830029",
  "source": "// SPDX-License-Identifier: MIT\npragma solidity >=0.4.22 <0.8.0;\n\nimport \"./KittyBreeding.sol\";\nimport \"./SaleClockAuction.sol\";\nimport \"./SiringClockAuction.sol\";\n\ncontract KittyAuction is KittyBreeding {\n    SaleClockAuction public saleAuction;\n    SiringClockAuction public siringAuction;\n    \n    function setSaleAuctionAddress(address _address) external onlyCLevel {\n        SaleClockAuction candidateContract = SaleClockAuction(_address);\n        saleAuction = candidateContract;\n    }\n\n    function setSiringAuctionAddress(address _address) external onlyCLevel {\n        SiringClockAuction candidateContract = SiringClockAuction(_address);\n        siringAuction = candidateContract;\n    }   \n\n    function createSaleAuction(\n        uint256 _kittyId,\n        uint256 _startingPrice,\n        uint256 _endingPrice,\n        uint256 _duration\n    )\n        external\n        whenNotPaused\n    {\n        require(_owns(msg.sender, _kittyId));\n        _approve(address(this), _kittyId);\n        saleAuction.createAuction(\n            _kittyId,\n            uint128(_startingPrice),\n            uint128(_endingPrice),\n            uint64(_duration),\n            msg.sender\n        );\n    }\n\n    function bidOnSaleAuction(uint256 _kittyId) external payable whenNotPaused{\n        uint256 currentPrice = saleAuction.getCurrentPrice(_kittyId);\n        require(msg.value >= currentPrice);\n    \n        saleAuction.bid.value(msg.value)(_kittyId);\n        _transfer(address(this), msg.sender, _kittyId);\n        msg.sender.transfer(msg.value - currentPrice);\n    }\n\n\n    function createSiringAuction(\n        uint256 _kittyId,\n        uint256 _startingPrice,\n        uint256 _endingPrice,\n        uint256 _duration\n    )\n        external\n        whenNotPaused\n    {\n        require(_owns(msg.sender, _kittyId));\n        Kitty storage kitty = kitties[_kittyId];\n        require(_isReadyToBreed(kitty));\n        _approve(address(this), _kittyId);\n        siringAuction.createAuction(\n            _kittyId,\n            _startingPrice,\n            _endingPrice,\n            _duration,\n            msg.sender\n        );\n    }\n\n    function bidOnSiringAuction(\n        uint256 _sireId,\n        uint256 _matronId\n    )\n        external\n        payable\n        whenNotPaused\n    {\n        // Auction contract checks input sizes\n        require(_owns(msg.sender, _matronId));\n        Kitty storage matron = kitties[_matronId];\n        require(_isReadyToBreed(matron));\n\n        uint256 currentPrice = siringAuction.getCurrentPrice(_sireId);\n        require(msg.value >= currentPrice + autoBirthFee);\n        \n        siringAuction.bid.value(msg.value - autoBirthFee)(_sireId);\n        _transfer(address(this), kittyIndexToOwner[_sireId], _sireId);\n        _breedWith(uint32(_matronId), uint32(_sireId));\n        msg.sender.transfer(msg.value - currentPrice - autoBirthFee);\n    }\n\n    function withdrawAuctionBalances() external onlyCLevel {\n        saleAuction.withdrawBalance();\n        siringAuction.withdrawBalance();\n    }     \n}\n",
  "sourcePath": "D:\\github\\mason\\simpleCryptoPet\\contracts\\KittyAuction.sol",
  "compiler": {
    "name": "solc",
    "version": "0.4.25+commit.59dbf8f1.Emscripten.clang"
  },
  "schemaVersion": "3.2.5",
  "updatedAt": "2020-10-06T16:41:16.866Z",
  "devdoc": {
    "methods": {}
  },
  "userdoc": {
    "methods": {}
  }
}